{
  "contractName": "NobleToken",
  "abi": [
    {
      "inputs": [],
      "stateMutability": "nonpayable",
      "type": "constructor"
    },
    {
      "anonymous": false,
      "inputs": [
        {
          "indexed": true,
          "internalType": "address",
          "name": "owner",
          "type": "address"
        },
        {
          "indexed": true,
          "internalType": "address",
          "name": "approved",
          "type": "address"
        },
        {
          "indexed": true,
          "internalType": "uint256",
          "name": "tokenId",
          "type": "uint256"
        }
      ],
      "name": "Approval",
      "type": "event"
    },
    {
      "anonymous": false,
      "inputs": [
        {
          "indexed": true,
          "internalType": "address",
          "name": "owner",
          "type": "address"
        },
        {
          "indexed": true,
          "internalType": "address",
          "name": "operator",
          "type": "address"
        },
        {
          "indexed": false,
          "internalType": "bool",
          "name": "approved",
          "type": "bool"
        }
      ],
      "name": "ApprovalForAll",
      "type": "event"
    },
    {
      "anonymous": false,
      "inputs": [
        {
          "indexed": true,
          "internalType": "address",
          "name": "from",
          "type": "address"
        },
        {
          "indexed": true,
          "internalType": "address",
          "name": "to",
          "type": "address"
        },
        {
          "indexed": true,
          "internalType": "uint256",
          "name": "tokenId",
          "type": "uint256"
        }
      ],
      "name": "Transfer",
      "type": "event"
    },
    {
      "inputs": [
        {
          "internalType": "uint256",
          "name": "",
          "type": "uint256"
        }
      ],
      "name": "allTokens",
      "outputs": [
        {
          "internalType": "uint256",
          "name": "tokenId",
          "type": "uint256"
        },
        {
          "internalType": "string",
          "name": "tokenName",
          "type": "string"
        },
        {
          "internalType": "address",
          "name": "owner",
          "type": "address"
        }
      ],
      "stateMutability": "view",
      "type": "function",
      "constant": true
    },
    {
      "inputs": [
        {
          "internalType": "address",
          "name": "to",
          "type": "address"
        },
        {
          "internalType": "uint256",
          "name": "tokenId",
          "type": "uint256"
        }
      ],
      "name": "approve",
      "outputs": [],
      "stateMutability": "nonpayable",
      "type": "function"
    },
    {
      "inputs": [
        {
          "internalType": "address",
          "name": "owner",
          "type": "address"
        }
      ],
      "name": "balanceOf",
      "outputs": [
        {
          "internalType": "uint256",
          "name": "",
          "type": "uint256"
        }
      ],
      "stateMutability": "view",
      "type": "function",
      "constant": true
    },
    {
      "inputs": [
        {
          "internalType": "uint256",
          "name": "tokenId",
          "type": "uint256"
        }
      ],
      "name": "getApproved",
      "outputs": [
        {
          "internalType": "address",
          "name": "",
          "type": "address"
        }
      ],
      "stateMutability": "view",
      "type": "function",
      "constant": true
    },
    {
      "inputs": [
        {
          "internalType": "address",
          "name": "owner",
          "type": "address"
        },
        {
          "internalType": "address",
          "name": "operator",
          "type": "address"
        }
      ],
      "name": "isApprovedForAll",
      "outputs": [
        {
          "internalType": "bool",
          "name": "",
          "type": "bool"
        }
      ],
      "stateMutability": "view",
      "type": "function",
      "constant": true
    },
    {
      "inputs": [],
      "name": "name",
      "outputs": [
        {
          "internalType": "string",
          "name": "",
          "type": "string"
        }
      ],
      "stateMutability": "view",
      "type": "function",
      "constant": true
    },
    {
      "inputs": [],
      "name": "owner",
      "outputs": [
        {
          "internalType": "address",
          "name": "",
          "type": "address"
        }
      ],
      "stateMutability": "view",
      "type": "function",
      "constant": true
    },
    {
      "inputs": [
        {
          "internalType": "uint256",
          "name": "tokenId",
          "type": "uint256"
        }
      ],
      "name": "ownerOf",
      "outputs": [
        {
          "internalType": "address",
          "name": "",
          "type": "address"
        }
      ],
      "stateMutability": "view",
      "type": "function",
      "constant": true
    },
    {
      "inputs": [
        {
          "internalType": "address",
          "name": "from",
          "type": "address"
        },
        {
          "internalType": "address",
          "name": "to",
          "type": "address"
        },
        {
          "internalType": "uint256",
          "name": "tokenId",
          "type": "uint256"
        }
      ],
      "name": "safeTransferFrom",
      "outputs": [],
      "stateMutability": "nonpayable",
      "type": "function"
    },
    {
      "inputs": [
        {
          "internalType": "address",
          "name": "from",
          "type": "address"
        },
        {
          "internalType": "address",
          "name": "to",
          "type": "address"
        },
        {
          "internalType": "uint256",
          "name": "tokenId",
          "type": "uint256"
        },
        {
          "internalType": "bytes",
          "name": "_data",
          "type": "bytes"
        }
      ],
      "name": "safeTransferFrom",
      "outputs": [],
      "stateMutability": "nonpayable",
      "type": "function"
    },
    {
      "inputs": [
        {
          "internalType": "address",
          "name": "operator",
          "type": "address"
        },
        {
          "internalType": "bool",
          "name": "approved",
          "type": "bool"
        }
      ],
      "name": "setApprovalForAll",
      "outputs": [],
      "stateMutability": "nonpayable",
      "type": "function"
    },
    {
      "inputs": [
        {
          "internalType": "bytes4",
          "name": "interfaceId",
          "type": "bytes4"
        }
      ],
      "name": "supportsInterface",
      "outputs": [
        {
          "internalType": "bool",
          "name": "",
          "type": "bool"
        }
      ],
      "stateMutability": "view",
      "type": "function",
      "constant": true
    },
    {
      "inputs": [],
      "name": "symbol",
      "outputs": [
        {
          "internalType": "string",
          "name": "",
          "type": "string"
        }
      ],
      "stateMutability": "view",
      "type": "function",
      "constant": true
    },
    {
      "inputs": [
        {
          "internalType": "address",
          "name": "",
          "type": "address"
        },
        {
          "internalType": "uint256",
          "name": "",
          "type": "uint256"
        }
      ],
      "name": "tokenAddress",
      "outputs": [
        {
          "internalType": "uint256",
          "name": "tokenId",
          "type": "uint256"
        },
        {
          "internalType": "string",
          "name": "tokenName",
          "type": "string"
        },
        {
          "internalType": "address",
          "name": "owner",
          "type": "address"
        }
      ],
      "stateMutability": "view",
      "type": "function",
      "constant": true
    },
    {
      "inputs": [
        {
          "internalType": "string",
          "name": "",
          "type": "string"
        }
      ],
      "name": "tokenExists",
      "outputs": [
        {
          "internalType": "bool",
          "name": "",
          "type": "bool"
        }
      ],
      "stateMutability": "view",
      "type": "function",
      "constant": true
    },
    {
      "inputs": [
        {
          "internalType": "uint256",
          "name": "tokenId",
          "type": "uint256"
        }
      ],
      "name": "tokenURI",
      "outputs": [
        {
          "internalType": "string",
          "name": "",
          "type": "string"
        }
      ],
      "stateMutability": "view",
      "type": "function",
      "constant": true
    },
    {
      "inputs": [
        {
          "internalType": "address",
          "name": "from",
          "type": "address"
        },
        {
          "internalType": "address",
          "name": "to",
          "type": "address"
        },
        {
          "internalType": "uint256",
          "name": "tokenId",
          "type": "uint256"
        }
      ],
      "name": "transferFrom",
      "outputs": [],
      "stateMutability": "nonpayable",
      "type": "function"
    },
    {
      "inputs": [],
      "name": "getAllTokens",
      "outputs": [
        {
          "components": [
            {
              "internalType": "uint256",
              "name": "tokenId",
              "type": "uint256"
            },
            {
              "internalType": "string",
              "name": "tokenName",
              "type": "string"
            },
            {
              "internalType": "address",
              "name": "owner",
              "type": "address"
            }
          ],
          "internalType": "struct NobleToken.Noble[]",
          "name": "",
          "type": "tuple[]"
        }
      ],
      "stateMutability": "view",
      "type": "function",
      "constant": true
    },
    {
      "inputs": [],
      "name": "getMyTokens",
      "outputs": [
        {
          "components": [
            {
              "internalType": "uint256",
              "name": "tokenId",
              "type": "uint256"
            },
            {
              "internalType": "string",
              "name": "tokenName",
              "type": "string"
            },
            {
              "internalType": "address",
              "name": "owner",
              "type": "address"
            }
          ],
          "internalType": "struct NobleToken.Noble[]",
          "name": "",
          "type": "tuple[]"
        }
      ],
      "stateMutability": "view",
      "type": "function",
      "constant": true
    },
    {
      "inputs": [
        {
          "internalType": "string",
          "name": "_tokenName",
          "type": "string"
        }
      ],
      "name": "mintToken",
      "outputs": [],
      "stateMutability": "payable",
      "type": "function",
      "payable": true
    }
  ],
  "bytecode": "0x608060405260016007553480156200001657600080fd5b506040518060400160405280600a81526020017f4e6f626c65546f6b656e000000000000000000000000000000000000000000008152506040518060400160405280600381526020017f434c52000000000000000000000000000000000000000000000000000000000081525081600090805190602001906200009b929190620000fe565b508060019080519060200190620000b4929190620000fe565b50505033600660006101000a81548173ffffffffffffffffffffffffffffffffffffffff021916908373ffffffffffffffffffffffffffffffffffffffff16021790555062000213565b8280546200010c90620001dd565b90600052602060002090601f0160209004810192826200013057600085556200017c565b82601f106200014b57805160ff19168380011785556200017c565b828001600101855582156200017c579182015b828111156200017b5782518255916020019190600101906200015e565b5b5090506200018b91906200018f565b5090565b5b80821115620001aa57600081600090555060010162000190565b5090565b7f4e487b7100000000000000000000000000000000000000000000000000000000600052602260045260246000fd5b60006002820490506001821680620001f657607f821691505b602082108114156200020d576200020c620001ae565b5b50919050565b61365580620002236000396000f3fe60806040526004361061011f5760003560e01c8063634282af116100a0578063a22cb46511610064578063a22cb46514610402578063b88d4fde1461042b578063c87b56dd14610454578063e985e9c514610491578063e985ed21146104ce5761011f565b8063634282af146102f35780636352211e1461033257806370a082311461036f5780638da5cb5b146103ac57806395d89b41146103d75761011f565b80632a5c792a116100e75780632a5c792a1461021b57806333eba49a1461024657806342842e0e146102625780635b3b136a1461028b5780636059eae1146102b65761011f565b806301ffc9a71461012457806306fdde0314610161578063081812fc1461018c578063095ea7b3146101c957806323b872dd146101f2575b600080fd5b34801561013057600080fd5b5061014b600480360381019061014691906121bd565b61050d565b6040516101589190612205565b60405180910390f35b34801561016d57600080fd5b506101766105ef565b60405161018391906122b9565b60405180910390f35b34801561019857600080fd5b506101b360048036038101906101ae9190612311565b610681565b6040516101c0919061237f565b60405180910390f35b3480156101d557600080fd5b506101f060048036038101906101eb91906123c6565b610706565b005b3480156101fe57600080fd5b5061021960048036038101906102149190612406565b61081e565b005b34801561022757600080fd5b5061023061087e565b60405161023d91906125d3565b60405180910390f35b610260600480360381019061025b919061265a565b6109cf565b005b34801561026e57600080fd5b5061028960048036038101906102849190612406565b610cff565b005b34801561029757600080fd5b506102a0610d1f565b6040516102ad91906125d3565b60405180910390f35b3480156102c257600080fd5b506102dd60048036038101906102d891906127d7565b610ead565b6040516102ea9190612205565b60405180910390f35b3480156102ff57600080fd5b5061031a60048036038101906103159190612311565b610ee3565b6040516103299392919061282f565b60405180910390f35b34801561033e57600080fd5b5061035960048036038101906103549190612311565b610fc5565b604051610366919061237f565b60405180910390f35b34801561037b57600080fd5b506103966004803603810190610391919061286d565b611077565b6040516103a3919061289a565b60405180910390f35b3480156103b857600080fd5b506103c161112f565b6040516103ce919061237f565b60405180910390f35b3480156103e357600080fd5b506103ec611155565b6040516103f991906122b9565b60405180910390f35b34801561040e57600080fd5b50610429600480360381019061042491906128e1565b6111e7565b005b34801561043757600080fd5b50610452600480360381019061044d91906129c2565b6111fd565b005b34801561046057600080fd5b5061047b60048036038101906104769190612311565b61125f565b60405161048891906122b9565b60405180910390f35b34801561049d57600080fd5b506104b860048036038101906104b39190612a45565b611306565b6040516104c59190612205565b60405180910390f35b3480156104da57600080fd5b506104f560048036038101906104f091906123c6565b61139a565b6040516105049392919061282f565b60405180910390f35b60007f80ac58cd000000000000000000000000000000000000000000000000000000007bffffffffffffffffffffffffffffffffffffffffffffffffffffffff1916827bffffffffffffffffffffffffffffffffffffffffffffffffffffffff191614806105d857507f5b5e139f000000000000000000000000000000000000000000000000000000007bffffffffffffffffffffffffffffffffffffffffffffffffffffffff1916827bffffffffffffffffffffffffffffffffffffffffffffffffffffffff1916145b806105e857506105e782611489565b5b9050919050565b6060600080546105fe90612ab4565b80601f016020809104026020016040519081016040528092919081815260200182805461062a90612ab4565b80156106775780601f1061064c57610100808354040283529160200191610677565b820191906000526020600020905b81548152906001019060200180831161065a57829003601f168201915b5050505050905090565b600061068c826114f3565b6106cb576040517f08c379a00000000000000000000000000000000000000000000000000000000081526004016106c290612b58565b60405180910390fd5b6004600083815260200190815260200160002060009054906101000a900473ffffffffffffffffffffffffffffffffffffffff169050919050565b600061071182610fc5565b90508073ffffffffffffffffffffffffffffffffffffffff168373ffffffffffffffffffffffffffffffffffffffff161415610782576040517f08c379a000000000000000000000000000000000000000000000000000000000815260040161077990612bea565b60405180910390fd5b8073ffffffffffffffffffffffffffffffffffffffff166107a161155f565b73ffffffffffffffffffffffffffffffffffffffff1614806107d057506107cf816107ca61155f565b611306565b5b61080f576040517f08c379a000000000000000000000000000000000000000000000000000000000815260040161080690612c7c565b60405180910390fd5b6108198383611567565b505050565b61082f61082961155f565b82611620565b61086e576040517f08c379a000000000000000000000000000000000000000000000000000000000815260040161086590612d0e565b60405180910390fd5b6108798383836116fe565b505050565b60606008805480602002602001604051908101604052809291908181526020016000905b828210156109c65783829060005260206000209060030201604051806060016040529081600082015481526020016001820180546108df90612ab4565b80601f016020809104026020016040519081016040528092919081815260200182805461090b90612ab4565b80156109585780601f1061092d57610100808354040283529160200191610958565b820191906000526020600020905b81548152906001019060200180831161093b57829003601f168201915b505050505081526020016002820160009054906101000a900473ffffffffffffffffffffffffffffffffffffffff1673ffffffffffffffffffffffffffffffffffffffff1673ffffffffffffffffffffffffffffffffffffffff1681525050815260200190600101906108a2565b50505050905090565b600a82826040516109e1929190612d5e565b908152602001604051809103902060009054906101000a900460ff1615610a3d576040517f08c379a0000000000000000000000000000000000000000000000000000000008152600401610a3490612dc3565b60405180910390fd5b610a4933600754611965565b60086040518060600160405280600754815260200184848080601f016020809104026020016040519081016040528093929190818152602001838380828437600081840152601f19601f8201169050808301925050505050505081526020013373ffffffffffffffffffffffffffffffffffffffff168152509080600181540180825580915050600190039060005260206000209060030201600090919091909150600082015181600001556020820151816001019080519060200190610b119291906120ae565b5060408201518160020160006101000a81548173ffffffffffffffffffffffffffffffffffffffff021916908373ffffffffffffffffffffffffffffffffffffffff1602179055505050600960003373ffffffffffffffffffffffffffffffffffffffff1673ffffffffffffffffffffffffffffffffffffffff1681526020019081526020016000206040518060600160405280600754815260200184848080601f016020809104026020016040519081016040528093929190818152602001838380828437600081840152601f19601f8201169050808301925050505050505081526020013373ffffffffffffffffffffffffffffffffffffffff168152509080600181540180825580915050600190039060005260206000209060030201600090919091909150600082015181600001556020820151816001019080519060200190610c609291906120ae565b5060408201518160020160006101000a81548173ffffffffffffffffffffffffffffffffffffffff021916908373ffffffffffffffffffffffffffffffffffffffff16021790555050506001600a8383604051610cbe929190612d5e565b908152602001604051809103902060006101000a81548160ff02191690831515021790555060076000815480929190610cf690612e12565b91905055505050565b610d1a838383604051806020016040528060008152506111fd565b505050565b6060600960003373ffffffffffffffffffffffffffffffffffffffff1673ffffffffffffffffffffffffffffffffffffffff168152602001908152602001600020805480602002602001604051908101604052809291908181526020016000905b82821015610ea4578382906000526020600020906003020160405180606001604052908160008201548152602001600182018054610dbd90612ab4565b80601f0160208091040260200160405190810160405280929190818152602001828054610de990612ab4565b8015610e365780601f10610e0b57610100808354040283529160200191610e36565b820191906000526020600020905b815481529060010190602001808311610e1957829003601f168201915b505050505081526020016002820160009054906101000a900473ffffffffffffffffffffffffffffffffffffffff1673ffffffffffffffffffffffffffffffffffffffff1673ffffffffffffffffffffffffffffffffffffffff168152505081526020019060010190610d80565b50505050905090565b600a818051602081018201805184825260208301602085012081835280955050505050506000915054906101000a900460ff1681565b60088181548110610ef357600080fd5b9060005260206000209060030201600091509050806000015490806001018054610f1c90612ab4565b80601f0160208091040260200160405190810160405280929190818152602001828054610f4890612ab4565b8015610f955780601f10610f6a57610100808354040283529160200191610f95565b820191906000526020600020905b815481529060010190602001808311610f7857829003601f168201915b5050505050908060020160009054906101000a900473ffffffffffffffffffffffffffffffffffffffff16905083565b6000806002600084815260200190815260200160002060009054906101000a900473ffffffffffffffffffffffffffffffffffffffff169050600073ffffffffffffffffffffffffffffffffffffffff168173ffffffffffffffffffffffffffffffffffffffff16141561106e576040517f08c379a000000000000000000000000000000000000000000000000000000000815260040161106590612ecd565b60405180910390fd5b80915050919050565b60008073ffffffffffffffffffffffffffffffffffffffff168273ffffffffffffffffffffffffffffffffffffffff1614156110e8576040517f08c379a00000000000000000000000000000000000000000000000000000000081526004016110df90612f5f565b60405180910390fd5b600360008373ffffffffffffffffffffffffffffffffffffffff1673ffffffffffffffffffffffffffffffffffffffff168152602001908152602001600020549050919050565b600660009054906101000a900473ffffffffffffffffffffffffffffffffffffffff1681565b60606001805461116490612ab4565b80601f016020809104026020016040519081016040528092919081815260200182805461119090612ab4565b80156111dd5780601f106111b2576101008083540402835291602001916111dd565b820191906000526020600020905b8154815290600101906020018083116111c057829003601f168201915b5050505050905090565b6111f96111f261155f565b8383611983565b5050565b61120e61120861155f565b83611620565b61124d576040517f08c379a000000000000000000000000000000000000000000000000000000000815260040161124490612d0e565b60405180910390fd5b61125984848484611af0565b50505050565b606061126a826114f3565b6112a9576040517f08c379a00000000000000000000000000000000000000000000000000000000081526004016112a090612ff1565b60405180910390fd5b60006112b3611b4c565b905060008151116112d357604051806020016040528060008152506112fe565b806112dd84611b63565b6040516020016112ee929190613042565b6040516020818303038152906040525b915050919050565b6000600560008473ffffffffffffffffffffffffffffffffffffffff1673ffffffffffffffffffffffffffffffffffffffff16815260200190815260200160002060008373ffffffffffffffffffffffffffffffffffffffff1673ffffffffffffffffffffffffffffffffffffffff16815260200190815260200160002060009054906101000a900460ff16905092915050565b600960205281600052604060002081815481106113b657600080fd5b9060005260206000209060030201600091509150508060000154908060010180546113e090612ab4565b80601f016020809104026020016040519081016040528092919081815260200182805461140c90612ab4565b80156114595780601f1061142e57610100808354040283529160200191611459565b820191906000526020600020905b81548152906001019060200180831161143c57829003601f168201915b5050505050908060020160009054906101000a900473ffffffffffffffffffffffffffffffffffffffff16905083565b60007f01ffc9a7000000000000000000000000000000000000000000000000000000007bffffffffffffffffffffffffffffffffffffffffffffffffffffffff1916827bffffffffffffffffffffffffffffffffffffffffffffffffffffffff1916149050919050565b60008073ffffffffffffffffffffffffffffffffffffffff166002600084815260200190815260200160002060009054906101000a900473ffffffffffffffffffffffffffffffffffffffff1673ffffffffffffffffffffffffffffffffffffffff1614159050919050565b600033905090565b816004600083815260200190815260200160002060006101000a81548173ffffffffffffffffffffffffffffffffffffffff021916908373ffffffffffffffffffffffffffffffffffffffff160217905550808273ffffffffffffffffffffffffffffffffffffffff166115da83610fc5565b73ffffffffffffffffffffffffffffffffffffffff167f8c5be1e5ebec7d5bd14f71427d1e84f3dd0314c0f7b2291e5b200ac8c7c3b92560405160405180910390a45050565b600061162b826114f3565b61166a576040517f08c379a0000000000000000000000000000000000000000000000000000000008152600401611661906130d8565b60405180910390fd5b600061167583610fc5565b90508073ffffffffffffffffffffffffffffffffffffffff168473ffffffffffffffffffffffffffffffffffffffff1614806116e457508373ffffffffffffffffffffffffffffffffffffffff166116cc84610681565b73ffffffffffffffffffffffffffffffffffffffff16145b806116f557506116f48185611306565b5b91505092915050565b8273ffffffffffffffffffffffffffffffffffffffff1661171e82610fc5565b73ffffffffffffffffffffffffffffffffffffffff1614611774576040517f08c379a000000000000000000000000000000000000000000000000000000000815260040161176b9061316a565b60405180910390fd5b600073ffffffffffffffffffffffffffffffffffffffff168273ffffffffffffffffffffffffffffffffffffffff1614156117e4576040517f08c379a00000000000000000000000000000000000000000000000000000000081526004016117db906131fc565b60405180910390fd5b6117ef838383611cc4565b6117fa600082611567565b6001600360008573ffffffffffffffffffffffffffffffffffffffff1673ffffffffffffffffffffffffffffffffffffffff168152602001908152602001600020600082825461184a919061321c565b925050819055506001600360008473ffffffffffffffffffffffffffffffffffffffff1673ffffffffffffffffffffffffffffffffffffffff16815260200190815260200160002060008282546118a19190613250565b92505081905550816002600083815260200190815260200160002060006101000a81548173ffffffffffffffffffffffffffffffffffffffff021916908373ffffffffffffffffffffffffffffffffffffffff160217905550808273ffffffffffffffffffffffffffffffffffffffff168473ffffffffffffffffffffffffffffffffffffffff167fddf252ad1be2c89b69c2b068fc378daa952ba7f163c4a11628f55a4df523b3ef60405160405180910390a4611960838383611cc9565b505050565b61197f828260405180602001604052806000815250611cce565b5050565b8173ffffffffffffffffffffffffffffffffffffffff168373ffffffffffffffffffffffffffffffffffffffff1614156119f2576040517f08c379a00000000000000000000000000000000000000000000000000000000081526004016119e9906132f2565b60405180910390fd5b80600560008573ffffffffffffffffffffffffffffffffffffffff1673ffffffffffffffffffffffffffffffffffffffff16815260200190815260200160002060008473ffffffffffffffffffffffffffffffffffffffff1673ffffffffffffffffffffffffffffffffffffffff16815260200190815260200160002060006101000a81548160ff0219169083151502179055508173ffffffffffffffffffffffffffffffffffffffff168373ffffffffffffffffffffffffffffffffffffffff167f17307eab39ab6107e8899845ad3d59bd9653f200f220920489ca2b5937696c3183604051611ae39190612205565b60405180910390a3505050565b611afb8484846116fe565b611b0784848484611d29565b611b46576040517f08c379a0000000000000000000000000000000000000000000000000000000008152600401611b3d90613384565b60405180910390fd5b50505050565b606060405180602001604052806000815250905090565b60606000821415611bab576040518060400160405280600181526020017f30000000000000000000000000000000000000000000000000000000000000008152509050611cbf565b600082905060005b60008214611bdd578080611bc690612e12565b915050600a82611bd691906133d3565b9150611bb3565b60008167ffffffffffffffff811115611bf957611bf86126ac565b5b6040519080825280601f01601f191660200182016040528015611c2b5781602001600182028036833780820191505090505b5090505b60008514611cb857600182611c44919061321c565b9150600a85611c539190613404565b6030611c5f9190613250565b60f81b818381518110611c7557611c74613435565b5b60200101907effffffffffffffffffffffffffffffffffffffffffffffffffffffffffffff1916908160001a905350600a85611cb191906133d3565b9450611c2f565b8093505050505b919050565b505050565b505050565b611cd88383611eb1565b611ce56000848484611d29565b611d24576040517f08c379a0000000000000000000000000000000000000000000000000000000008152600401611d1b90613384565b60405180910390fd5b505050565b6000611d4a8473ffffffffffffffffffffffffffffffffffffffff1661208b565b15611ea4578373ffffffffffffffffffffffffffffffffffffffff1663150b7a02611d7361155f565b8786866040518563ffffffff1660e01b8152600401611d9594939291906134b9565b6020604051808303816000875af1925050508015611dd157506040513d601f19601f82011682018060405250810190611dce919061351a565b60015b611e54573d8060008114611e01576040519150601f19603f3d011682016040523d82523d6000602084013e611e06565b606091505b50600081511415611e4c576040517f08c379a0000000000000000000000000000000000000000000000000000000008152600401611e4390613384565b60405180910390fd5b805181602001fd5b63150b7a0260e01b7bffffffffffffffffffffffffffffffffffffffffffffffffffffffff1916817bffffffffffffffffffffffffffffffffffffffffffffffffffffffff191614915050611ea9565b600190505b949350505050565b600073ffffffffffffffffffffffffffffffffffffffff168273ffffffffffffffffffffffffffffffffffffffff161415611f21576040517f08c379a0000000000000000000000000000000000000000000000000000000008152600401611f1890613593565b60405180910390fd5b611f2a816114f3565b15611f6a576040517f08c379a0000000000000000000000000000000000000000000000000000000008152600401611f61906135ff565b60405180910390fd5b611f7660008383611cc4565b6001600360008473ffffffffffffffffffffffffffffffffffffffff1673ffffffffffffffffffffffffffffffffffffffff1681526020019081526020016000206000828254611fc69190613250565b92505081905550816002600083815260200190815260200160002060006101000a81548173ffffffffffffffffffffffffffffffffffffffff021916908373ffffffffffffffffffffffffffffffffffffffff160217905550808273ffffffffffffffffffffffffffffffffffffffff16600073ffffffffffffffffffffffffffffffffffffffff167fddf252ad1be2c89b69c2b068fc378daa952ba7f163c4a11628f55a4df523b3ef60405160405180910390a461208760008383611cc9565b5050565b6000808273ffffffffffffffffffffffffffffffffffffffff163b119050919050565b8280546120ba90612ab4565b90600052602060002090601f0160209004810192826120dc5760008555612123565b82601f106120f557805160ff1916838001178555612123565b82800160010185558215612123579182015b82811115612122578251825591602001919060010190612107565b5b5090506121309190612134565b5090565b5b8082111561214d576000816000905550600101612135565b5090565b6000604051905090565b600080fd5b600080fd5b60007fffffffff0000000000000000000000000000000000000000000000000000000082169050919050565b61219a81612165565b81146121a557600080fd5b50565b6000813590506121b781612191565b92915050565b6000602082840312156121d3576121d261215b565b5b60006121e1848285016121a8565b91505092915050565b60008115159050919050565b6121ff816121ea565b82525050565b600060208201905061221a60008301846121f6565b92915050565b600081519050919050565b600082825260208201905092915050565b60005b8381101561225a57808201518184015260208101905061223f565b83811115612269576000848401525b50505050565b6000601f19601f8301169050919050565b600061228b82612220565b612295818561222b565b93506122a581856020860161223c565b6122ae8161226f565b840191505092915050565b600060208201905081810360008301526122d38184612280565b905092915050565b6000819050919050565b6122ee816122db565b81146122f957600080fd5b50565b60008135905061230b816122e5565b92915050565b6000602082840312156123275761232661215b565b5b6000612335848285016122fc565b91505092915050565b600073ffffffffffffffffffffffffffffffffffffffff82169050919050565b60006123698261233e565b9050919050565b6123798161235e565b82525050565b60006020820190506123946000830184612370565b92915050565b6123a38161235e565b81146123ae57600080fd5b50565b6000813590506123c08161239a565b92915050565b600080604083850312156123dd576123dc61215b565b5b60006123eb858286016123b1565b92505060206123fc858286016122fc565b9150509250929050565b60008060006060848603121561241f5761241e61215b565b5b600061242d868287016123b1565b935050602061243e868287016123b1565b925050604061244f868287016122fc565b9150509250925092565b600081519050919050565b600082825260208201905092915050565b6000819050602082019050919050565b61248e816122db565b82525050565b600082825260208201905092915050565b60006124b082612220565b6124ba8185612494565b93506124ca81856020860161223c565b6124d38161226f565b840191505092915050565b6124e78161235e565b82525050565b60006060830160008301516125056000860182612485565b506020830151848203602086015261251d82826124a5565b915050604083015161253260408601826124de565b508091505092915050565b600061254983836124ed565b905092915050565b6000602082019050919050565b600061256982612459565b6125738185612464565b93508360208202850161258585612475565b8060005b858110156125c157848403895281516125a2858261253d565b94506125ad83612551565b925060208a01995050600181019050612589565b50829750879550505050505092915050565b600060208201905081810360008301526125ed818461255e565b905092915050565b600080fd5b600080fd5b600080fd5b60008083601f84011261261a576126196125f5565b5b8235905067ffffffffffffffff811115612637576126366125fa565b5b602083019150836001820283011115612653576126526125ff565b5b9250929050565b600080602083850312156126715761267061215b565b5b600083013567ffffffffffffffff81111561268f5761268e612160565b5b61269b85828601612604565b92509250509250929050565b600080fd5b7f4e487b7100000000000000000000000000000000000000000000000000000000600052604160045260246000fd5b6126e48261226f565b810181811067ffffffffffffffff82111715612703576127026126ac565b5b80604052505050565b6000612716612151565b905061272282826126db565b919050565b600067ffffffffffffffff821115612742576127416126ac565b5b61274b8261226f565b9050602081019050919050565b82818337600083830152505050565b600061277a61277584612727565b61270c565b905082815260208101848484011115612796576127956126a7565b5b6127a1848285612758565b509392505050565b600082601f8301126127be576127bd6125f5565b5b81356127ce848260208601612767565b91505092915050565b6000602082840312156127ed576127ec61215b565b5b600082013567ffffffffffffffff81111561280b5761280a612160565b5b612817848285016127a9565b91505092915050565b612829816122db565b82525050565b60006060820190506128446000830186612820565b81810360208301526128568185612280565b90506128656040830184612370565b949350505050565b6000602082840312156128835761288261215b565b5b6000612891848285016123b1565b91505092915050565b60006020820190506128af6000830184612820565b92915050565b6128be816121ea565b81146128c957600080fd5b50565b6000813590506128db816128b5565b92915050565b600080604083850312156128f8576128f761215b565b5b6000612906858286016123b1565b9250506020612917858286016128cc565b9150509250929050565b600067ffffffffffffffff82111561293c5761293b6126ac565b5b6129458261226f565b9050602081019050919050565b600061296561296084612921565b61270c565b905082815260208101848484011115612981576129806126a7565b5b61298c848285612758565b509392505050565b600082601f8301126129a9576129a86125f5565b5b81356129b9848260208601612952565b91505092915050565b600080600080608085870312156129dc576129db61215b565b5b60006129ea878288016123b1565b94505060206129fb878288016123b1565b9350506040612a0c878288016122fc565b925050606085013567ffffffffffffffff811115612a2d57612a2c612160565b5b612a3987828801612994565b91505092959194509250565b60008060408385031215612a5c57612a5b61215b565b5b6000612a6a858286016123b1565b9250506020612a7b858286016123b1565b9150509250929050565b7f4e487b7100000000000000000000000000000000000000000000000000000000600052602260045260246000fd5b60006002820490506001821680612acc57607f821691505b60208210811415612ae057612adf612a85565b5b50919050565b7f4552433732313a20617070726f76656420717565727920666f72206e6f6e657860008201527f697374656e7420746f6b656e0000000000000000000000000000000000000000602082015250565b6000612b42602c8361222b565b9150612b4d82612ae6565b604082019050919050565b60006020820190508181036000830152612b7181612b35565b9050919050565b7f4552433732313a20617070726f76616c20746f2063757272656e74206f776e6560008201527f7200000000000000000000000000000000000000000000000000000000000000602082015250565b6000612bd460218361222b565b9150612bdf82612b78565b604082019050919050565b60006020820190508181036000830152612c0381612bc7565b9050919050565b7f4552433732313a20617070726f76652063616c6c6572206973206e6f74206f7760008201527f6e6572206e6f7220617070726f76656420666f7220616c6c0000000000000000602082015250565b6000612c6660388361222b565b9150612c7182612c0a565b604082019050919050565b60006020820190508181036000830152612c9581612c59565b9050919050565b7f4552433732313a207472616e736665722063616c6c6572206973206e6f74206f60008201527f776e6572206e6f7220617070726f766564000000000000000000000000000000602082015250565b6000612cf860318361222b565b9150612d0382612c9c565b604082019050919050565b60006020820190508181036000830152612d2781612ceb565b9050919050565b600081905092915050565b6000612d458385612d2e565b9350612d52838584612758565b82840190509392505050565b6000612d6b828486612d39565b91508190509392505050565b7f546f6b656e20616c726561647920657869737473000000000000000000000000600082015250565b6000612dad60148361222b565b9150612db882612d77565b602082019050919050565b60006020820190508181036000830152612ddc81612da0565b9050919050565b7f4e487b7100000000000000000000000000000000000000000000000000000000600052601160045260246000fd5b6000612e1d826122db565b91507fffffffffffffffffffffffffffffffffffffffffffffffffffffffffffffffff821415612e5057612e4f612de3565b5b600182019050919050565b7f4552433732313a206f776e657220717565727920666f72206e6f6e657869737460008201527f656e7420746f6b656e0000000000000000000000000000000000000000000000602082015250565b6000612eb760298361222b565b9150612ec282612e5b565b604082019050919050565b60006020820190508181036000830152612ee681612eaa565b9050919050565b7f4552433732313a2062616c616e636520717565727920666f7220746865207a6560008201527f726f206164647265737300000000000000000000000000000000000000000000602082015250565b6000612f49602a8361222b565b9150612f5482612eed565b604082019050919050565b60006020820190508181036000830152612f7881612f3c565b9050919050565b7f4552433732314d657461646174613a2055524920717565727920666f72206e6f60008201527f6e6578697374656e7420746f6b656e0000000000000000000000000000000000602082015250565b6000612fdb602f8361222b565b9150612fe682612f7f565b604082019050919050565b6000602082019050818103600083015261300a81612fce565b9050919050565b600061301c82612220565b6130268185612d2e565b935061303681856020860161223c565b80840191505092915050565b600061304e8285613011565b915061305a8284613011565b91508190509392505050565b7f4552433732313a206f70657261746f7220717565727920666f72206e6f6e657860008201527f697374656e7420746f6b656e0000000000000000000000000000000000000000602082015250565b60006130c2602c8361222b565b91506130cd82613066565b604082019050919050565b600060208201905081810360008301526130f1816130b5565b9050919050565b7f4552433732313a207472616e736665722066726f6d20696e636f72726563742060008201527f6f776e6572000000000000000000000000000000000000000000000000000000602082015250565b600061315460258361222b565b915061315f826130f8565b604082019050919050565b6000602082019050818103600083015261318381613147565b9050919050565b7f4552433732313a207472616e7366657220746f20746865207a65726f2061646460008201527f7265737300000000000000000000000000000000000000000000000000000000602082015250565b60006131e660248361222b565b91506131f18261318a565b604082019050919050565b60006020820190508181036000830152613215816131d9565b9050919050565b6000613227826122db565b9150613232836122db565b92508282101561324557613244612de3565b5b828203905092915050565b600061325b826122db565b9150613266836122db565b9250827fffffffffffffffffffffffffffffffffffffffffffffffffffffffffffffffff0382111561329b5761329a612de3565b5b828201905092915050565b7f4552433732313a20617070726f766520746f2063616c6c657200000000000000600082015250565b60006132dc60198361222b565b91506132e7826132a6565b602082019050919050565b6000602082019050818103600083015261330b816132cf565b9050919050565b7f4552433732313a207472616e7366657220746f206e6f6e20455243373231526560008201527f63656976657220696d706c656d656e7465720000000000000000000000000000602082015250565b600061336e60328361222b565b915061337982613312565b604082019050919050565b6000602082019050818103600083015261339d81613361565b9050919050565b7f4e487b7100000000000000000000000000000000000000000000000000000000600052601260045260246000fd5b60006133de826122db565b91506133e9836122db565b9250826133f9576133f86133a4565b5b828204905092915050565b600061340f826122db565b915061341a836122db565b92508261342a576134296133a4565b5b828206905092915050565b7f4e487b7100000000000000000000000000000000000000000000000000000000600052603260045260246000fd5b600081519050919050565b600082825260208201905092915050565b600061348b82613464565b613495818561346f565b93506134a581856020860161223c565b6134ae8161226f565b840191505092915050565b60006080820190506134ce6000830187612370565b6134db6020830186612370565b6134e86040830185612820565b81810360608301526134fa8184613480565b905095945050505050565b60008151905061351481612191565b92915050565b6000602082840312156135305761352f61215b565b5b600061353e84828501613505565b91505092915050565b7f4552433732313a206d696e7420746f20746865207a65726f2061646472657373600082015250565b600061357d60208361222b565b915061358882613547565b602082019050919050565b600060208201905081810360008301526135ac81613570565b9050919050565b7f4552433732313a20746f6b656e20616c7265616479206d696e74656400000000600082015250565b60006135e9601c8361222b565b91506135f4826135b3565b602082019050919050565b60006020820190508181036000830152613618816135dc565b905091905056fea26469706673582212201bab39f875d5f82ec3758828a8962e020b53fd02529a470653fbae0061b3843564736f6c634300080b0033",
  "immutableReferences": {},
  "source": "// SPDX-License-Identifier: MIT\r\npragma solidity ^0.8.11;\r\n\r\nimport \"@openzeppelin/contracts/token/ERC721/ERC721.sol\";\r\n\r\ncontract NobleToken is ERC721 {\r\n\r\n    address public owner;\r\n    uint256 tokenId = 1;\r\n\r\n    struct Noble {\r\n        uint tokenId;\r\n        string tokenName;\r\n        address owner;\r\n    }\r\n\r\n    Noble[] public allTokens;\r\n\r\n    mapping(address => Noble[]) public tokenAddress;\r\n    mapping(string => bool) public tokenExists;\r\n\r\n    constructor() ERC721(\"NobleToken\", \"CLR\") {\r\n        owner = msg.sender;\r\n    }\r\n\r\n    function getAllTokens() public view returns (Noble[] memory) {\r\n        return allTokens;\r\n    }\r\n\r\n    function getMyTokens() public view returns (Noble[] memory) {\r\n        return tokenAddress[msg.sender];\r\n    }\r\n    \r\n    function mintToken(string calldata _tokenName) public payable {\r\n        require(!tokenExists[_tokenName], \"Token already exists\");\r\n\r\n        _safeMint(msg.sender, tokenId);\r\n\r\n        allTokens.push(Noble(tokenId, _tokenName, msg.sender));\r\n\r\n        tokenAddress[msg.sender].push(Noble(tokenId, _tokenName, msg.sender));\r\n\r\n        tokenExists[_tokenName] = true;\r\n        \r\n        tokenId++;\r\n    }\r\n}\r\n\r\n\r\n\r\n",
  "sourcePath": "D:\\Github\\NobleFantasyTournament\\noble-fantasy-tournament\\contracts\\NobleToken.sol",
  "compiler": {
    "name": "solc",
    "version": "0.8.11+commit.d7f03943.Emscripten.clang"
  },
  "schemaVersion": "3.4.4",
  "updatedAt": "2022-02-28T18:49:16.667Z",
  "networkType": "ethereum",
  "devdoc": {
    "kind": "dev",
    "methods": {
      "approve(address,uint256)": {
        "details": "See {IERC721-approve}."
      },
      "balanceOf(address)": {
        "details": "See {IERC721-balanceOf}."
      },
      "getApproved(uint256)": {
        "details": "See {IERC721-getApproved}."
      },
      "isApprovedForAll(address,address)": {
        "details": "See {IERC721-isApprovedForAll}."
      },
      "name()": {
        "details": "See {IERC721Metadata-name}."
      },
      "ownerOf(uint256)": {
        "details": "See {IERC721-ownerOf}."
      },
      "safeTransferFrom(address,address,uint256)": {
        "details": "See {IERC721-safeTransferFrom}."
      },
      "safeTransferFrom(address,address,uint256,bytes)": {
        "details": "See {IERC721-safeTransferFrom}."
      },
      "setApprovalForAll(address,bool)": {
        "details": "See {IERC721-setApprovalForAll}."
      },
      "supportsInterface(bytes4)": {
        "details": "See {IERC165-supportsInterface}."
      },
      "symbol()": {
        "details": "See {IERC721Metadata-symbol}."
      },
      "tokenURI(uint256)": {
        "details": "See {IERC721Metadata-tokenURI}."
      },
      "transferFrom(address,address,uint256)": {
        "details": "See {IERC721-transferFrom}."
      }
    },
    "version": 1
  },
  "userdoc": {
    "kind": "user",
    "methods": {},
    "version": 1
  }
}