{
  "contractName": "NobleToken",
  "abi": [
    {
      "inputs": [],
      "stateMutability": "nonpayable",
      "type": "constructor"
    },
    {
      "anonymous": false,
      "inputs": [
        {
          "indexed": true,
          "internalType": "address",
          "name": "owner",
          "type": "address"
        },
        {
          "indexed": true,
          "internalType": "address",
          "name": "approved",
          "type": "address"
        },
        {
          "indexed": true,
          "internalType": "uint256",
          "name": "tokenId",
          "type": "uint256"
        }
      ],
      "name": "Approval",
      "type": "event"
    },
    {
      "anonymous": false,
      "inputs": [
        {
          "indexed": true,
          "internalType": "address",
          "name": "owner",
          "type": "address"
        },
        {
          "indexed": true,
          "internalType": "address",
          "name": "operator",
          "type": "address"
        },
        {
          "indexed": false,
          "internalType": "bool",
          "name": "approved",
          "type": "bool"
        }
      ],
      "name": "ApprovalForAll",
      "type": "event"
    },
    {
      "anonymous": false,
      "inputs": [
        {
          "indexed": true,
          "internalType": "address",
          "name": "from",
          "type": "address"
        },
        {
          "indexed": true,
          "internalType": "address",
          "name": "to",
          "type": "address"
        },
        {
          "indexed": true,
          "internalType": "uint256",
          "name": "tokenId",
          "type": "uint256"
        }
      ],
      "name": "Transfer",
      "type": "event"
    },
    {
      "inputs": [
        {
          "internalType": "address",
          "name": "to",
          "type": "address"
        },
        {
          "internalType": "uint256",
          "name": "tokenId",
          "type": "uint256"
        }
      ],
      "name": "approve",
      "outputs": [],
      "stateMutability": "nonpayable",
      "type": "function"
    },
    {
      "inputs": [
        {
          "internalType": "address",
          "name": "owner",
          "type": "address"
        }
      ],
      "name": "balanceOf",
      "outputs": [
        {
          "internalType": "uint256",
          "name": "",
          "type": "uint256"
        }
      ],
      "stateMutability": "view",
      "type": "function",
      "constant": true
    },
    {
      "inputs": [
        {
          "internalType": "uint256",
          "name": "tokenId",
          "type": "uint256"
        }
      ],
      "name": "getApproved",
      "outputs": [
        {
          "internalType": "address",
          "name": "",
          "type": "address"
        }
      ],
      "stateMutability": "view",
      "type": "function",
      "constant": true
    },
    {
      "inputs": [
        {
          "internalType": "address",
          "name": "owner",
          "type": "address"
        },
        {
          "internalType": "address",
          "name": "operator",
          "type": "address"
        }
      ],
      "name": "isApprovedForAll",
      "outputs": [
        {
          "internalType": "bool",
          "name": "",
          "type": "bool"
        }
      ],
      "stateMutability": "view",
      "type": "function",
      "constant": true
    },
    {
      "inputs": [],
      "name": "name",
      "outputs": [
        {
          "internalType": "string",
          "name": "",
          "type": "string"
        }
      ],
      "stateMutability": "view",
      "type": "function",
      "constant": true
    },
    {
      "inputs": [
        {
          "internalType": "uint256",
          "name": "tokenId",
          "type": "uint256"
        }
      ],
      "name": "ownerOf",
      "outputs": [
        {
          "internalType": "address",
          "name": "",
          "type": "address"
        }
      ],
      "stateMutability": "view",
      "type": "function",
      "constant": true
    },
    {
      "inputs": [
        {
          "internalType": "address",
          "name": "from",
          "type": "address"
        },
        {
          "internalType": "address",
          "name": "to",
          "type": "address"
        },
        {
          "internalType": "uint256",
          "name": "tokenId",
          "type": "uint256"
        }
      ],
      "name": "safeTransferFrom",
      "outputs": [],
      "stateMutability": "nonpayable",
      "type": "function"
    },
    {
      "inputs": [
        {
          "internalType": "address",
          "name": "from",
          "type": "address"
        },
        {
          "internalType": "address",
          "name": "to",
          "type": "address"
        },
        {
          "internalType": "uint256",
          "name": "tokenId",
          "type": "uint256"
        },
        {
          "internalType": "bytes",
          "name": "_data",
          "type": "bytes"
        }
      ],
      "name": "safeTransferFrom",
      "outputs": [],
      "stateMutability": "nonpayable",
      "type": "function"
    },
    {
      "inputs": [
        {
          "internalType": "address",
          "name": "operator",
          "type": "address"
        },
        {
          "internalType": "bool",
          "name": "approved",
          "type": "bool"
        }
      ],
      "name": "setApprovalForAll",
      "outputs": [],
      "stateMutability": "nonpayable",
      "type": "function"
    },
    {
      "inputs": [
        {
          "internalType": "bytes4",
          "name": "interfaceId",
          "type": "bytes4"
        }
      ],
      "name": "supportsInterface",
      "outputs": [
        {
          "internalType": "bool",
          "name": "",
          "type": "bool"
        }
      ],
      "stateMutability": "view",
      "type": "function",
      "constant": true
    },
    {
      "inputs": [],
      "name": "symbol",
      "outputs": [
        {
          "internalType": "string",
          "name": "",
          "type": "string"
        }
      ],
      "stateMutability": "view",
      "type": "function",
      "constant": true
    },
    {
      "inputs": [],
      "name": "tokenIds",
      "outputs": [
        {
          "internalType": "uint256",
          "name": "",
          "type": "uint256"
        }
      ],
      "stateMutability": "view",
      "type": "function",
      "constant": true
    },
    {
      "inputs": [
        {
          "internalType": "uint256",
          "name": "tokenId",
          "type": "uint256"
        }
      ],
      "name": "tokenURI",
      "outputs": [
        {
          "internalType": "string",
          "name": "",
          "type": "string"
        }
      ],
      "stateMutability": "view",
      "type": "function",
      "constant": true
    },
    {
      "inputs": [
        {
          "internalType": "address",
          "name": "from",
          "type": "address"
        },
        {
          "internalType": "address",
          "name": "to",
          "type": "address"
        },
        {
          "internalType": "uint256",
          "name": "tokenId",
          "type": "uint256"
        }
      ],
      "name": "transferFrom",
      "outputs": [],
      "stateMutability": "nonpayable",
      "type": "function"
    },
    {
      "inputs": [
        {
          "internalType": "address",
          "name": "player",
          "type": "address"
        },
        {
          "internalType": "string",
          "name": "tokenURI",
          "type": "string"
        }
      ],
      "name": "mintToken",
      "outputs": [
        {
          "internalType": "uint256",
          "name": "",
          "type": "uint256"
        }
      ],
      "stateMutability": "nonpayable",
      "type": "function"
    }
  ],
  "bytecode": "0x60806040523480156200001157600080fd5b506040518060400160405280600a81526020017f4e6f626c65546f6b656e000000000000000000000000000000000000000000008152506040518060400160405280600381526020017f4e424c0000000000000000000000000000000000000000000000000000000000815250816000908051906020019062000096929190620000b8565b508060019080519060200190620000af929190620000b8565b505050620001cd565b828054620000c69062000197565b90600052602060002090601f016020900481019282620000ea576000855562000136565b82601f106200010557805160ff191683800117855562000136565b8280016001018555821562000136579182015b828111156200013557825182559160200191906001019062000118565b5b50905062000145919062000149565b5090565b5b80821115620001645760008160009055506001016200014a565b5090565b7f4e487b7100000000000000000000000000000000000000000000000000000000600052602260045260246000fd5b60006002820490506001821680620001b057607f821691505b60208210811415620001c757620001c662000168565b5b50919050565b612c4980620001dd6000396000f3fe608060405234801561001057600080fd5b50600436106100f55760003560e01c80636352211e11610097578063a22cb46511610066578063a22cb46514610298578063b88d4fde146102b4578063c87b56dd146102d0578063e985e9c514610300576100f5565b80636352211e146101fc57806370a082311461022c578063714cff561461025c57806395d89b411461027a576100f5565b8063095ea7b3116100d3578063095ea7b31461017857806323b872dd146101945780633d02d0c9146101b057806342842e0e146101e0576100f5565b806301ffc9a7146100fa57806306fdde031461012a578063081812fc14610148575b600080fd5b610114600480360381019061010f91906119ab565b610330565b60405161012191906119f3565b60405180910390f35b610132610412565b60405161013f9190611aa7565b60405180910390f35b610162600480360381019061015d9190611aff565b6104a4565b60405161016f9190611b6d565b60405180910390f35b610192600480360381019061018d9190611bb4565b610529565b005b6101ae60048036038101906101a99190611bf4565b610641565b005b6101ca60048036038101906101c59190611d7c565b6106a1565b6040516101d79190611de7565b60405180910390f35b6101fa60048036038101906101f59190611bf4565b6106dc565b005b61021660048036038101906102119190611aff565b6106fc565b6040516102239190611b6d565b60405180910390f35b61024660048036038101906102419190611e02565b6107ae565b6040516102539190611de7565b60405180910390f35b610264610866565b6040516102719190611de7565b60405180910390f35b61028261086c565b60405161028f9190611aa7565b60405180910390f35b6102b260048036038101906102ad9190611e5b565b6108fe565b005b6102ce60048036038101906102c99190611f3c565b610914565b005b6102ea60048036038101906102e59190611aff565b610976565b6040516102f79190611aa7565b60405180910390f35b61031a60048036038101906103159190611fbf565b610ac8565b60405161032791906119f3565b60405180910390f35b60007f80ac58cd000000000000000000000000000000000000000000000000000000007bffffffffffffffffffffffffffffffffffffffffffffffffffffffff1916827bffffffffffffffffffffffffffffffffffffffffffffffffffffffff191614806103fb57507f5b5e139f000000000000000000000000000000000000000000000000000000007bffffffffffffffffffffffffffffffffffffffffffffffffffffffff1916827bffffffffffffffffffffffffffffffffffffffffffffffffffffffff1916145b8061040b575061040a82610b5c565b5b9050919050565b6060600080546104219061202e565b80601f016020809104026020016040519081016040528092919081815260200182805461044d9061202e565b801561049a5780601f1061046f5761010080835404028352916020019161049a565b820191906000526020600020905b81548152906001019060200180831161047d57829003601f168201915b5050505050905090565b60006104af82610bc6565b6104ee576040517f08c379a00000000000000000000000000000000000000000000000000000000081526004016104e5906120d2565b60405180910390fd5b6004600083815260200190815260200160002060009054906101000a900473ffffffffffffffffffffffffffffffffffffffff169050919050565b6000610534826106fc565b90508073ffffffffffffffffffffffffffffffffffffffff168373ffffffffffffffffffffffffffffffffffffffff1614156105a5576040517f08c379a000000000000000000000000000000000000000000000000000000000815260040161059c90612164565b60405180910390fd5b8073ffffffffffffffffffffffffffffffffffffffff166105c4610c32565b73ffffffffffffffffffffffffffffffffffffffff1614806105f357506105f2816105ed610c32565b610ac8565b5b610632576040517f08c379a0000000000000000000000000000000000000000000000000000000008152600401610629906121f6565b60405180910390fd5b61063c8383610c3a565b505050565b61065261064c610c32565b82610cf3565b610691576040517f08c379a000000000000000000000000000000000000000000000000000000000815260040161068890612288565b60405180910390fd5b61069c838383610dd1565b505050565b60008060075490506106b38482611038565b6106bd8184611056565b60016007546106cc91906122d7565b6007819055508091505092915050565b6106f783838360405180602001604052806000815250610914565b505050565b6000806002600084815260200190815260200160002060009054906101000a900473ffffffffffffffffffffffffffffffffffffffff169050600073ffffffffffffffffffffffffffffffffffffffff168173ffffffffffffffffffffffffffffffffffffffff1614156107a5576040517f08c379a000000000000000000000000000000000000000000000000000000000815260040161079c9061239f565b60405180910390fd5b80915050919050565b60008073ffffffffffffffffffffffffffffffffffffffff168273ffffffffffffffffffffffffffffffffffffffff16141561081f576040517f08c379a000000000000000000000000000000000000000000000000000000000815260040161081690612431565b60405180910390fd5b600360008373ffffffffffffffffffffffffffffffffffffffff1673ffffffffffffffffffffffffffffffffffffffff168152602001908152602001600020549050919050565b60075481565b60606001805461087b9061202e565b80601f01602080910402602001604051908101604052809291908181526020018280546108a79061202e565b80156108f45780601f106108c9576101008083540402835291602001916108f4565b820191906000526020600020905b8154815290600101906020018083116108d757829003601f168201915b5050505050905090565b610910610909610c32565b83836110ca565b5050565b61092561091f610c32565b83610cf3565b610964576040517f08c379a000000000000000000000000000000000000000000000000000000000815260040161095b90612288565b60405180910390fd5b61097084848484611237565b50505050565b606061098182610bc6565b6109c0576040517f08c379a00000000000000000000000000000000000000000000000000000000081526004016109b7906124c3565b60405180910390fd5b60006006600084815260200190815260200160002080546109e09061202e565b80601f0160208091040260200160405190810160405280929190818152602001828054610a0c9061202e565b8015610a595780601f10610a2e57610100808354040283529160200191610a59565b820191906000526020600020905b815481529060010190602001808311610a3c57829003601f168201915b505050505090506000610a6a611293565b9050600081511415610a80578192505050610ac3565b600082511115610ab5578082604051602001610a9d92919061251f565b60405160208183030381529060405292505050610ac3565b610abe846112aa565b925050505b919050565b6000600560008473ffffffffffffffffffffffffffffffffffffffff1673ffffffffffffffffffffffffffffffffffffffff16815260200190815260200160002060008373ffffffffffffffffffffffffffffffffffffffff1673ffffffffffffffffffffffffffffffffffffffff16815260200190815260200160002060009054906101000a900460ff16905092915050565b60007f01ffc9a7000000000000000000000000000000000000000000000000000000007bffffffffffffffffffffffffffffffffffffffffffffffffffffffff1916827bffffffffffffffffffffffffffffffffffffffffffffffffffffffff1916149050919050565b60008073ffffffffffffffffffffffffffffffffffffffff166002600084815260200190815260200160002060009054906101000a900473ffffffffffffffffffffffffffffffffffffffff1673ffffffffffffffffffffffffffffffffffffffff1614159050919050565b600033905090565b816004600083815260200190815260200160002060006101000a81548173ffffffffffffffffffffffffffffffffffffffff021916908373ffffffffffffffffffffffffffffffffffffffff160217905550808273ffffffffffffffffffffffffffffffffffffffff16610cad836106fc565b73ffffffffffffffffffffffffffffffffffffffff167f8c5be1e5ebec7d5bd14f71427d1e84f3dd0314c0f7b2291e5b200ac8c7c3b92560405160405180910390a45050565b6000610cfe82610bc6565b610d3d576040517f08c379a0000000000000000000000000000000000000000000000000000000008152600401610d34906125b5565b60405180910390fd5b6000610d48836106fc565b90508073ffffffffffffffffffffffffffffffffffffffff168473ffffffffffffffffffffffffffffffffffffffff161480610db757508373ffffffffffffffffffffffffffffffffffffffff16610d9f846104a4565b73ffffffffffffffffffffffffffffffffffffffff16145b80610dc85750610dc78185610ac8565b5b91505092915050565b8273ffffffffffffffffffffffffffffffffffffffff16610df1826106fc565b73ffffffffffffffffffffffffffffffffffffffff1614610e47576040517f08c379a0000000000000000000000000000000000000000000000000000000008152600401610e3e90612647565b60405180910390fd5b600073ffffffffffffffffffffffffffffffffffffffff168273ffffffffffffffffffffffffffffffffffffffff161415610eb7576040517f08c379a0000000000000000000000000000000000000000000000000000000008152600401610eae906126d9565b60405180910390fd5b610ec2838383611351565b610ecd600082610c3a565b6001600360008573ffffffffffffffffffffffffffffffffffffffff1673ffffffffffffffffffffffffffffffffffffffff1681526020019081526020016000206000828254610f1d91906126f9565b925050819055506001600360008473ffffffffffffffffffffffffffffffffffffffff1673ffffffffffffffffffffffffffffffffffffffff1681526020019081526020016000206000828254610f7491906122d7565b92505081905550816002600083815260200190815260200160002060006101000a81548173ffffffffffffffffffffffffffffffffffffffff021916908373ffffffffffffffffffffffffffffffffffffffff160217905550808273ffffffffffffffffffffffffffffffffffffffff168473ffffffffffffffffffffffffffffffffffffffff167fddf252ad1be2c89b69c2b068fc378daa952ba7f163c4a11628f55a4df523b3ef60405160405180910390a4611033838383611356565b505050565b61105282826040518060200160405280600081525061135b565b5050565b61105f82610bc6565b61109e576040517f08c379a00000000000000000000000000000000000000000000000000000000081526004016110959061279f565b60405180910390fd5b806006600084815260200190815260200160002090805190602001906110c592919061189c565b505050565b8173ffffffffffffffffffffffffffffffffffffffff168373ffffffffffffffffffffffffffffffffffffffff161415611139576040517f08c379a00000000000000000000000000000000000000000000000000000000081526004016111309061280b565b60405180910390fd5b80600560008573ffffffffffffffffffffffffffffffffffffffff1673ffffffffffffffffffffffffffffffffffffffff16815260200190815260200160002060008473ffffffffffffffffffffffffffffffffffffffff1673ffffffffffffffffffffffffffffffffffffffff16815260200190815260200160002060006101000a81548160ff0219169083151502179055508173ffffffffffffffffffffffffffffffffffffffff168373ffffffffffffffffffffffffffffffffffffffff167f17307eab39ab6107e8899845ad3d59bd9653f200f220920489ca2b5937696c318360405161122a91906119f3565b60405180910390a3505050565b611242848484610dd1565b61124e848484846113b6565b61128d576040517f08c379a00000000000000000000000000000000000000000000000000000000081526004016112849061289d565b60405180910390fd5b50505050565b606060405180602001604052806000815250905090565b60606112b582610bc6565b6112f4576040517f08c379a00000000000000000000000000000000000000000000000000000000081526004016112eb9061292f565b60405180910390fd5b60006112fe611293565b9050600081511161131e5760405180602001604052806000815250611349565b806113288461153e565b60405160200161133992919061251f565b6040516020818303038152906040525b915050919050565b505050565b505050565b611365838361169f565b61137260008484846113b6565b6113b1576040517f08c379a00000000000000000000000000000000000000000000000000000000081526004016113a89061289d565b60405180910390fd5b505050565b60006113d78473ffffffffffffffffffffffffffffffffffffffff16611879565b15611531578373ffffffffffffffffffffffffffffffffffffffff1663150b7a02611400610c32565b8786866040518563ffffffff1660e01b815260040161142294939291906129a4565b6020604051808303816000875af192505050801561145e57506040513d601f19601f8201168201806040525081019061145b9190612a05565b60015b6114e1573d806000811461148e576040519150601f19603f3d011682016040523d82523d6000602084013e611493565b606091505b506000815114156114d9576040517f08c379a00000000000000000000000000000000000000000000000000000000081526004016114d09061289d565b60405180910390fd5b805181602001fd5b63150b7a0260e01b7bffffffffffffffffffffffffffffffffffffffffffffffffffffffff1916817bffffffffffffffffffffffffffffffffffffffffffffffffffffffff191614915050611536565b600190505b949350505050565b60606000821415611586576040518060400160405280600181526020017f3000000000000000000000000000000000000000000000000000000000000000815250905061169a565b600082905060005b600082146115b85780806115a190612a32565b915050600a826115b19190612aaa565b915061158e565b60008167ffffffffffffffff8111156115d4576115d3611c51565b5b6040519080825280601f01601f1916602001820160405280156116065781602001600182028036833780820191505090505b5090505b600085146116935760018261161f91906126f9565b9150600a8561162e9190612adb565b603061163a91906122d7565b60f81b8183815181106116505761164f612b0c565b5b60200101907effffffffffffffffffffffffffffffffffffffffffffffffffffffffffffff1916908160001a905350600a8561168c9190612aaa565b945061160a565b8093505050505b919050565b600073ffffffffffffffffffffffffffffffffffffffff168273ffffffffffffffffffffffffffffffffffffffff16141561170f576040517f08c379a000000000000000000000000000000000000000000000000000000000815260040161170690612b87565b60405180910390fd5b61171881610bc6565b15611758576040517f08c379a000000000000000000000000000000000000000000000000000000000815260040161174f90612bf3565b60405180910390fd5b61176460008383611351565b6001600360008473ffffffffffffffffffffffffffffffffffffffff1673ffffffffffffffffffffffffffffffffffffffff16815260200190815260200160002060008282546117b491906122d7565b92505081905550816002600083815260200190815260200160002060006101000a81548173ffffffffffffffffffffffffffffffffffffffff021916908373ffffffffffffffffffffffffffffffffffffffff160217905550808273ffffffffffffffffffffffffffffffffffffffff16600073ffffffffffffffffffffffffffffffffffffffff167fddf252ad1be2c89b69c2b068fc378daa952ba7f163c4a11628f55a4df523b3ef60405160405180910390a461187560008383611356565b5050565b6000808273ffffffffffffffffffffffffffffffffffffffff163b119050919050565b8280546118a89061202e565b90600052602060002090601f0160209004810192826118ca5760008555611911565b82601f106118e357805160ff1916838001178555611911565b82800160010185558215611911579182015b828111156119105782518255916020019190600101906118f5565b5b50905061191e9190611922565b5090565b5b8082111561193b576000816000905550600101611923565b5090565b6000604051905090565b600080fd5b600080fd5b60007fffffffff0000000000000000000000000000000000000000000000000000000082169050919050565b61198881611953565b811461199357600080fd5b50565b6000813590506119a58161197f565b92915050565b6000602082840312156119c1576119c0611949565b5b60006119cf84828501611996565b91505092915050565b60008115159050919050565b6119ed816119d8565b82525050565b6000602082019050611a0860008301846119e4565b92915050565b600081519050919050565b600082825260208201905092915050565b60005b83811015611a48578082015181840152602081019050611a2d565b83811115611a57576000848401525b50505050565b6000601f19601f8301169050919050565b6000611a7982611a0e565b611a838185611a19565b9350611a93818560208601611a2a565b611a9c81611a5d565b840191505092915050565b60006020820190508181036000830152611ac18184611a6e565b905092915050565b6000819050919050565b611adc81611ac9565b8114611ae757600080fd5b50565b600081359050611af981611ad3565b92915050565b600060208284031215611b1557611b14611949565b5b6000611b2384828501611aea565b91505092915050565b600073ffffffffffffffffffffffffffffffffffffffff82169050919050565b6000611b5782611b2c565b9050919050565b611b6781611b4c565b82525050565b6000602082019050611b826000830184611b5e565b92915050565b611b9181611b4c565b8114611b9c57600080fd5b50565b600081359050611bae81611b88565b92915050565b60008060408385031215611bcb57611bca611949565b5b6000611bd985828601611b9f565b9250506020611bea85828601611aea565b9150509250929050565b600080600060608486031215611c0d57611c0c611949565b5b6000611c1b86828701611b9f565b9350506020611c2c86828701611b9f565b9250506040611c3d86828701611aea565b9150509250925092565b600080fd5b600080fd5b7f4e487b7100000000000000000000000000000000000000000000000000000000600052604160045260246000fd5b611c8982611a5d565b810181811067ffffffffffffffff82111715611ca857611ca7611c51565b5b80604052505050565b6000611cbb61193f565b9050611cc78282611c80565b919050565b600067ffffffffffffffff821115611ce757611ce6611c51565b5b611cf082611a5d565b9050602081019050919050565b82818337600083830152505050565b6000611d1f611d1a84611ccc565b611cb1565b905082815260208101848484011115611d3b57611d3a611c4c565b5b611d46848285611cfd565b509392505050565b600082601f830112611d6357611d62611c47565b5b8135611d73848260208601611d0c565b91505092915050565b60008060408385031215611d9357611d92611949565b5b6000611da185828601611b9f565b925050602083013567ffffffffffffffff811115611dc257611dc161194e565b5b611dce85828601611d4e565b9150509250929050565b611de181611ac9565b82525050565b6000602082019050611dfc6000830184611dd8565b92915050565b600060208284031215611e1857611e17611949565b5b6000611e2684828501611b9f565b91505092915050565b611e38816119d8565b8114611e4357600080fd5b50565b600081359050611e5581611e2f565b92915050565b60008060408385031215611e7257611e71611949565b5b6000611e8085828601611b9f565b9250506020611e9185828601611e46565b9150509250929050565b600067ffffffffffffffff821115611eb657611eb5611c51565b5b611ebf82611a5d565b9050602081019050919050565b6000611edf611eda84611e9b565b611cb1565b905082815260208101848484011115611efb57611efa611c4c565b5b611f06848285611cfd565b509392505050565b600082601f830112611f2357611f22611c47565b5b8135611f33848260208601611ecc565b91505092915050565b60008060008060808587031215611f5657611f55611949565b5b6000611f6487828801611b9f565b9450506020611f7587828801611b9f565b9350506040611f8687828801611aea565b925050606085013567ffffffffffffffff811115611fa757611fa661194e565b5b611fb387828801611f0e565b91505092959194509250565b60008060408385031215611fd657611fd5611949565b5b6000611fe485828601611b9f565b9250506020611ff585828601611b9f565b9150509250929050565b7f4e487b7100000000000000000000000000000000000000000000000000000000600052602260045260246000fd5b6000600282049050600182168061204657607f821691505b6020821081141561205a57612059611fff565b5b50919050565b7f4552433732313a20617070726f76656420717565727920666f72206e6f6e657860008201527f697374656e7420746f6b656e0000000000000000000000000000000000000000602082015250565b60006120bc602c83611a19565b91506120c782612060565b604082019050919050565b600060208201905081810360008301526120eb816120af565b9050919050565b7f4552433732313a20617070726f76616c20746f2063757272656e74206f776e6560008201527f7200000000000000000000000000000000000000000000000000000000000000602082015250565b600061214e602183611a19565b9150612159826120f2565b604082019050919050565b6000602082019050818103600083015261217d81612141565b9050919050565b7f4552433732313a20617070726f76652063616c6c6572206973206e6f74206f7760008201527f6e6572206e6f7220617070726f76656420666f7220616c6c0000000000000000602082015250565b60006121e0603883611a19565b91506121eb82612184565b604082019050919050565b6000602082019050818103600083015261220f816121d3565b9050919050565b7f4552433732313a207472616e736665722063616c6c6572206973206e6f74206f60008201527f776e6572206e6f7220617070726f766564000000000000000000000000000000602082015250565b6000612272603183611a19565b915061227d82612216565b604082019050919050565b600060208201905081810360008301526122a181612265565b9050919050565b7f4e487b7100000000000000000000000000000000000000000000000000000000600052601160045260246000fd5b60006122e282611ac9565b91506122ed83611ac9565b9250827fffffffffffffffffffffffffffffffffffffffffffffffffffffffffffffffff03821115612322576123216122a8565b5b828201905092915050565b7f4552433732313a206f776e657220717565727920666f72206e6f6e657869737460008201527f656e7420746f6b656e0000000000000000000000000000000000000000000000602082015250565b6000612389602983611a19565b91506123948261232d565b604082019050919050565b600060208201905081810360008301526123b88161237c565b9050919050565b7f4552433732313a2062616c616e636520717565727920666f7220746865207a6560008201527f726f206164647265737300000000000000000000000000000000000000000000602082015250565b600061241b602a83611a19565b9150612426826123bf565b604082019050919050565b6000602082019050818103600083015261244a8161240e565b9050919050565b7f45524337323155524953746f726167653a2055524920717565727920666f722060008201527f6e6f6e6578697374656e7420746f6b656e000000000000000000000000000000602082015250565b60006124ad603183611a19565b91506124b882612451565b604082019050919050565b600060208201905081810360008301526124dc816124a0565b9050919050565b600081905092915050565b60006124f982611a0e565b61250381856124e3565b9350612513818560208601611a2a565b80840191505092915050565b600061252b82856124ee565b915061253782846124ee565b91508190509392505050565b7f4552433732313a206f70657261746f7220717565727920666f72206e6f6e657860008201527f697374656e7420746f6b656e0000000000000000000000000000000000000000602082015250565b600061259f602c83611a19565b91506125aa82612543565b604082019050919050565b600060208201905081810360008301526125ce81612592565b9050919050565b7f4552433732313a207472616e736665722066726f6d20696e636f72726563742060008201527f6f776e6572000000000000000000000000000000000000000000000000000000602082015250565b6000612631602583611a19565b915061263c826125d5565b604082019050919050565b6000602082019050818103600083015261266081612624565b9050919050565b7f4552433732313a207472616e7366657220746f20746865207a65726f2061646460008201527f7265737300000000000000000000000000000000000000000000000000000000602082015250565b60006126c3602483611a19565b91506126ce82612667565b604082019050919050565b600060208201905081810360008301526126f2816126b6565b9050919050565b600061270482611ac9565b915061270f83611ac9565b925082821015612722576127216122a8565b5b828203905092915050565b7f45524337323155524953746f726167653a2055524920736574206f66206e6f6e60008201527f6578697374656e7420746f6b656e000000000000000000000000000000000000602082015250565b6000612789602e83611a19565b91506127948261272d565b604082019050919050565b600060208201905081810360008301526127b88161277c565b9050919050565b7f4552433732313a20617070726f766520746f2063616c6c657200000000000000600082015250565b60006127f5601983611a19565b9150612800826127bf565b602082019050919050565b60006020820190508181036000830152612824816127e8565b9050919050565b7f4552433732313a207472616e7366657220746f206e6f6e20455243373231526560008201527f63656976657220696d706c656d656e7465720000000000000000000000000000602082015250565b6000612887603283611a19565b91506128928261282b565b604082019050919050565b600060208201905081810360008301526128b68161287a565b9050919050565b7f4552433732314d657461646174613a2055524920717565727920666f72206e6f60008201527f6e6578697374656e7420746f6b656e0000000000000000000000000000000000602082015250565b6000612919602f83611a19565b9150612924826128bd565b604082019050919050565b600060208201905081810360008301526129488161290c565b9050919050565b600081519050919050565b600082825260208201905092915050565b60006129768261294f565b612980818561295a565b9350612990818560208601611a2a565b61299981611a5d565b840191505092915050565b60006080820190506129b96000830187611b5e565b6129c66020830186611b5e565b6129d36040830185611dd8565b81810360608301526129e5818461296b565b905095945050505050565b6000815190506129ff8161197f565b92915050565b600060208284031215612a1b57612a1a611949565b5b6000612a29848285016129f0565b91505092915050565b6000612a3d82611ac9565b91507fffffffffffffffffffffffffffffffffffffffffffffffffffffffffffffffff821415612a7057612a6f6122a8565b5b600182019050919050565b7f4e487b7100000000000000000000000000000000000000000000000000000000600052601260045260246000fd5b6000612ab582611ac9565b9150612ac083611ac9565b925082612ad057612acf612a7b565b5b828204905092915050565b6000612ae682611ac9565b9150612af183611ac9565b925082612b0157612b00612a7b565b5b828206905092915050565b7f4e487b7100000000000000000000000000000000000000000000000000000000600052603260045260246000fd5b7f4552433732313a206d696e7420746f20746865207a65726f2061646472657373600082015250565b6000612b71602083611a19565b9150612b7c82612b3b565b602082019050919050565b60006020820190508181036000830152612ba081612b64565b9050919050565b7f4552433732313a20746f6b656e20616c7265616479206d696e74656400000000600082015250565b6000612bdd601c83611a19565b9150612be882612ba7565b602082019050919050565b60006020820190508181036000830152612c0c81612bd0565b905091905056fea26469706673582212204b4c486a1e8ad342539fc7a2adf6ee0460ad7d6ba559a94e8aab2d90e4a7f19864736f6c634300080b0033",
  "immutableReferences": {},
  "source": "// SPDX-License-Identifier: MIT\r\npragma solidity ^0.8.11;\r\n\r\nimport \"@openzeppelin/contracts/token/ERC721/ERC721.sol\";\r\nimport \"@openzeppelin/contracts/token/ERC721/extensions/ERC721URIStorage.sol\";\r\n\r\ncontract NobleToken is ERC721URIStorage {\r\n    uint256 public tokenIds;\r\n\r\n    constructor() ERC721(\"NobleToken\", \"NBL\") {\r\n    }\r\n    \r\n    function mintToken(address player, string memory tokenURI) public returns (uint256) {\r\n        uint256 newItemId = tokenIds;\r\n        _safeMint(player, newItemId);\r\n        _setTokenURI(newItemId, tokenURI);\r\n        tokenIds = tokenIds + 1;\r\n        return newItemId;\r\n    }\r\n}\r\n\r\n\r\n\r\n",
  "sourcePath": "D:\\Github\\NobleFantasyTournament\\noble-fantasy-tournament\\contracts\\NobleToken.sol",
  "compiler": {
    "name": "solc",
    "version": "0.8.11+commit.d7f03943.Emscripten.clang"
  },
  "schemaVersion": "3.4.4",
  "updatedAt": "2022-04-22T15:17:10.839Z",
  "networkType": "ethereum",
  "devdoc": {
    "kind": "dev",
    "methods": {
      "approve(address,uint256)": {
        "details": "See {IERC721-approve}."
      },
      "balanceOf(address)": {
        "details": "See {IERC721-balanceOf}."
      },
      "getApproved(uint256)": {
        "details": "See {IERC721-getApproved}."
      },
      "isApprovedForAll(address,address)": {
        "details": "See {IERC721-isApprovedForAll}."
      },
      "name()": {
        "details": "See {IERC721Metadata-name}."
      },
      "ownerOf(uint256)": {
        "details": "See {IERC721-ownerOf}."
      },
      "safeTransferFrom(address,address,uint256)": {
        "details": "See {IERC721-safeTransferFrom}."
      },
      "safeTransferFrom(address,address,uint256,bytes)": {
        "details": "See {IERC721-safeTransferFrom}."
      },
      "setApprovalForAll(address,bool)": {
        "details": "See {IERC721-setApprovalForAll}."
      },
      "supportsInterface(bytes4)": {
        "details": "See {IERC165-supportsInterface}."
      },
      "symbol()": {
        "details": "See {IERC721Metadata-symbol}."
      },
      "tokenURI(uint256)": {
        "details": "See {IERC721Metadata-tokenURI}."
      },
      "transferFrom(address,address,uint256)": {
        "details": "See {IERC721-transferFrom}."
      }
    },
    "version": 1
  },
  "userdoc": {
    "kind": "user",
    "methods": {},
    "version": 1
  }
}