{
  "contractName": "NobleToken",
  "abi": [
    {
      "inputs": [
        {
          "internalType": "string",
          "name": "baseURI",
          "type": "string"
        }
      ],
      "stateMutability": "nonpayable",
      "type": "constructor"
    },
    {
      "anonymous": false,
      "inputs": [
        {
          "indexed": true,
          "internalType": "address",
          "name": "owner",
          "type": "address"
        },
        {
          "indexed": true,
          "internalType": "address",
          "name": "approved",
          "type": "address"
        },
        {
          "indexed": true,
          "internalType": "uint256",
          "name": "tokenId",
          "type": "uint256"
        }
      ],
      "name": "Approval",
      "type": "event"
    },
    {
      "anonymous": false,
      "inputs": [
        {
          "indexed": true,
          "internalType": "address",
          "name": "owner",
          "type": "address"
        },
        {
          "indexed": true,
          "internalType": "address",
          "name": "operator",
          "type": "address"
        },
        {
          "indexed": false,
          "internalType": "bool",
          "name": "approved",
          "type": "bool"
        }
      ],
      "name": "ApprovalForAll",
      "type": "event"
    },
    {
      "anonymous": false,
      "inputs": [
        {
          "indexed": true,
          "internalType": "address",
          "name": "previousOwner",
          "type": "address"
        },
        {
          "indexed": true,
          "internalType": "address",
          "name": "newOwner",
          "type": "address"
        }
      ],
      "name": "OwnershipTransferred",
      "type": "event"
    },
    {
      "anonymous": false,
      "inputs": [
        {
          "indexed": true,
          "internalType": "address",
          "name": "from",
          "type": "address"
        },
        {
          "indexed": true,
          "internalType": "address",
          "name": "to",
          "type": "address"
        },
        {
          "indexed": true,
          "internalType": "uint256",
          "name": "tokenId",
          "type": "uint256"
        }
      ],
      "name": "Transfer",
      "type": "event"
    },
    {
      "inputs": [],
      "name": "MAX_PER_MINT",
      "outputs": [
        {
          "internalType": "uint256",
          "name": "",
          "type": "uint256"
        }
      ],
      "stateMutability": "view",
      "type": "function",
      "constant": true
    },
    {
      "inputs": [],
      "name": "MAX_SUPPLY",
      "outputs": [
        {
          "internalType": "uint256",
          "name": "",
          "type": "uint256"
        }
      ],
      "stateMutability": "view",
      "type": "function",
      "constant": true
    },
    {
      "inputs": [],
      "name": "PRICE",
      "outputs": [
        {
          "internalType": "uint256",
          "name": "",
          "type": "uint256"
        }
      ],
      "stateMutability": "view",
      "type": "function",
      "constant": true
    },
    {
      "inputs": [
        {
          "internalType": "uint256",
          "name": "",
          "type": "uint256"
        }
      ],
      "name": "allTokens",
      "outputs": [
        {
          "internalType": "uint256",
          "name": "tokenId",
          "type": "uint256"
        },
        {
          "internalType": "address",
          "name": "owner",
          "type": "address"
        }
      ],
      "stateMutability": "view",
      "type": "function",
      "constant": true
    },
    {
      "inputs": [
        {
          "internalType": "address",
          "name": "to",
          "type": "address"
        },
        {
          "internalType": "uint256",
          "name": "tokenId",
          "type": "uint256"
        }
      ],
      "name": "approve",
      "outputs": [],
      "stateMutability": "nonpayable",
      "type": "function"
    },
    {
      "inputs": [
        {
          "internalType": "address",
          "name": "owner",
          "type": "address"
        }
      ],
      "name": "balanceOf",
      "outputs": [
        {
          "internalType": "uint256",
          "name": "",
          "type": "uint256"
        }
      ],
      "stateMutability": "view",
      "type": "function",
      "constant": true
    },
    {
      "inputs": [],
      "name": "baseTokenURI",
      "outputs": [
        {
          "internalType": "string",
          "name": "",
          "type": "string"
        }
      ],
      "stateMutability": "view",
      "type": "function",
      "constant": true
    },
    {
      "inputs": [
        {
          "internalType": "uint256",
          "name": "tokenId",
          "type": "uint256"
        }
      ],
      "name": "getApproved",
      "outputs": [
        {
          "internalType": "address",
          "name": "",
          "type": "address"
        }
      ],
      "stateMutability": "view",
      "type": "function",
      "constant": true
    },
    {
      "inputs": [
        {
          "internalType": "address",
          "name": "owner",
          "type": "address"
        },
        {
          "internalType": "address",
          "name": "operator",
          "type": "address"
        }
      ],
      "name": "isApprovedForAll",
      "outputs": [
        {
          "internalType": "bool",
          "name": "",
          "type": "bool"
        }
      ],
      "stateMutability": "view",
      "type": "function",
      "constant": true
    },
    {
      "inputs": [],
      "name": "name",
      "outputs": [
        {
          "internalType": "string",
          "name": "",
          "type": "string"
        }
      ],
      "stateMutability": "view",
      "type": "function",
      "constant": true
    },
    {
      "inputs": [],
      "name": "owner",
      "outputs": [
        {
          "internalType": "address",
          "name": "",
          "type": "address"
        }
      ],
      "stateMutability": "view",
      "type": "function",
      "constant": true
    },
    {
      "inputs": [
        {
          "internalType": "uint256",
          "name": "tokenId",
          "type": "uint256"
        }
      ],
      "name": "ownerOf",
      "outputs": [
        {
          "internalType": "address",
          "name": "",
          "type": "address"
        }
      ],
      "stateMutability": "view",
      "type": "function",
      "constant": true
    },
    {
      "inputs": [],
      "name": "renounceOwnership",
      "outputs": [],
      "stateMutability": "nonpayable",
      "type": "function"
    },
    {
      "inputs": [
        {
          "internalType": "address",
          "name": "from",
          "type": "address"
        },
        {
          "internalType": "address",
          "name": "to",
          "type": "address"
        },
        {
          "internalType": "uint256",
          "name": "tokenId",
          "type": "uint256"
        }
      ],
      "name": "safeTransferFrom",
      "outputs": [],
      "stateMutability": "nonpayable",
      "type": "function"
    },
    {
      "inputs": [
        {
          "internalType": "address",
          "name": "from",
          "type": "address"
        },
        {
          "internalType": "address",
          "name": "to",
          "type": "address"
        },
        {
          "internalType": "uint256",
          "name": "tokenId",
          "type": "uint256"
        },
        {
          "internalType": "bytes",
          "name": "_data",
          "type": "bytes"
        }
      ],
      "name": "safeTransferFrom",
      "outputs": [],
      "stateMutability": "nonpayable",
      "type": "function"
    },
    {
      "inputs": [
        {
          "internalType": "address",
          "name": "operator",
          "type": "address"
        },
        {
          "internalType": "bool",
          "name": "approved",
          "type": "bool"
        }
      ],
      "name": "setApprovalForAll",
      "outputs": [],
      "stateMutability": "nonpayable",
      "type": "function"
    },
    {
      "inputs": [
        {
          "internalType": "bytes4",
          "name": "interfaceId",
          "type": "bytes4"
        }
      ],
      "name": "supportsInterface",
      "outputs": [
        {
          "internalType": "bool",
          "name": "",
          "type": "bool"
        }
      ],
      "stateMutability": "view",
      "type": "function",
      "constant": true
    },
    {
      "inputs": [],
      "name": "symbol",
      "outputs": [
        {
          "internalType": "string",
          "name": "",
          "type": "string"
        }
      ],
      "stateMutability": "view",
      "type": "function",
      "constant": true
    },
    {
      "inputs": [
        {
          "internalType": "address",
          "name": "",
          "type": "address"
        },
        {
          "internalType": "uint256",
          "name": "",
          "type": "uint256"
        }
      ],
      "name": "tokenAddress",
      "outputs": [
        {
          "internalType": "uint256",
          "name": "tokenId",
          "type": "uint256"
        },
        {
          "internalType": "address",
          "name": "owner",
          "type": "address"
        }
      ],
      "stateMutability": "view",
      "type": "function",
      "constant": true
    },
    {
      "inputs": [
        {
          "internalType": "uint256",
          "name": "index",
          "type": "uint256"
        }
      ],
      "name": "tokenByIndex",
      "outputs": [
        {
          "internalType": "uint256",
          "name": "",
          "type": "uint256"
        }
      ],
      "stateMutability": "view",
      "type": "function",
      "constant": true
    },
    {
      "inputs": [
        {
          "internalType": "address",
          "name": "owner",
          "type": "address"
        },
        {
          "internalType": "uint256",
          "name": "index",
          "type": "uint256"
        }
      ],
      "name": "tokenOfOwnerByIndex",
      "outputs": [
        {
          "internalType": "uint256",
          "name": "",
          "type": "uint256"
        }
      ],
      "stateMutability": "view",
      "type": "function",
      "constant": true
    },
    {
      "inputs": [
        {
          "internalType": "uint256",
          "name": "tokenId",
          "type": "uint256"
        }
      ],
      "name": "tokenURI",
      "outputs": [
        {
          "internalType": "string",
          "name": "",
          "type": "string"
        }
      ],
      "stateMutability": "view",
      "type": "function",
      "constant": true
    },
    {
      "inputs": [],
      "name": "totalSupply",
      "outputs": [
        {
          "internalType": "uint256",
          "name": "",
          "type": "uint256"
        }
      ],
      "stateMutability": "view",
      "type": "function",
      "constant": true
    },
    {
      "inputs": [
        {
          "internalType": "address",
          "name": "from",
          "type": "address"
        },
        {
          "internalType": "address",
          "name": "to",
          "type": "address"
        },
        {
          "internalType": "uint256",
          "name": "tokenId",
          "type": "uint256"
        }
      ],
      "name": "transferFrom",
      "outputs": [],
      "stateMutability": "nonpayable",
      "type": "function"
    },
    {
      "inputs": [
        {
          "internalType": "address",
          "name": "newOwner",
          "type": "address"
        }
      ],
      "name": "transferOwnership",
      "outputs": [],
      "stateMutability": "nonpayable",
      "type": "function"
    },
    {
      "inputs": [
        {
          "internalType": "uint256",
          "name": "_count",
          "type": "uint256"
        }
      ],
      "name": "mintNFTs",
      "outputs": [],
      "stateMutability": "payable",
      "type": "function",
      "payable": true
    },
    {
      "inputs": [],
      "name": "getAllTokens",
      "outputs": [
        {
          "components": [
            {
              "internalType": "uint256",
              "name": "tokenId",
              "type": "uint256"
            },
            {
              "internalType": "address",
              "name": "owner",
              "type": "address"
            }
          ],
          "internalType": "struct NobleToken.Noble[]",
          "name": "",
          "type": "tuple[]"
        }
      ],
      "stateMutability": "view",
      "type": "function",
      "constant": true
    },
    {
      "inputs": [],
      "name": "getMyTokens",
      "outputs": [
        {
          "components": [
            {
              "internalType": "uint256",
              "name": "tokenId",
              "type": "uint256"
            },
            {
              "internalType": "address",
              "name": "owner",
              "type": "address"
            }
          ],
          "internalType": "struct NobleToken.Noble[]",
          "name": "",
          "type": "tuple[]"
        }
      ],
      "stateMutability": "view",
      "type": "function",
      "constant": true
    },
    {
      "inputs": [],
      "name": "withdraw",
      "outputs": [],
      "stateMutability": "payable",
      "type": "function",
      "payable": true
    }
  ],
  "bytecode": "0x60806040523480156200001157600080fd5b506040516200474c3803806200474c833981810160405281019062000037919062000446565b6040518060400160405280600a81526020017f4e6f626c65546f6b656e000000000000000000000000000000000000000000008152506040518060400160405280600381526020017f4e424c00000000000000000000000000000000000000000000000000000000008152508160009080519060200190620000bb929190620001f9565b508060019080519060200190620000d4929190620001f9565b505050620000f7620000eb6200010f60201b60201c565b6200011760201b60201c565b6200010881620001dd60201b60201c565b50620004fc565b600033905090565b6000600a60009054906101000a900473ffffffffffffffffffffffffffffffffffffffff16905081600a60006101000a81548173ffffffffffffffffffffffffffffffffffffffff021916908373ffffffffffffffffffffffffffffffffffffffff1602179055508173ffffffffffffffffffffffffffffffffffffffff168173ffffffffffffffffffffffffffffffffffffffff167f8be0079c531659141344cd1fd0a4f28419497f9722a3daafe3b4186f6b6457e060405160405180910390a35050565b80600c9080519060200190620001f5929190620001f9565b5050565b8280546200020790620004c6565b90600052602060002090601f0160209004810192826200022b576000855562000277565b82601f106200024657805160ff191683800117855562000277565b8280016001018555821562000277579182015b828111156200027657825182559160200191906001019062000259565b5b5090506200028691906200028a565b5090565b5b80821115620002a55760008160009055506001016200028b565b5090565b6000604051905090565b600080fd5b600080fd5b600080fd5b600080fd5b6000601f19601f8301169050919050565b7f4e487b7100000000000000000000000000000000000000000000000000000000600052604160045260246000fd5b6200031282620002c7565b810181811067ffffffffffffffff82111715620003345762000333620002d8565b5b80604052505050565b600062000349620002a9565b905062000357828262000307565b919050565b600067ffffffffffffffff8211156200037a5762000379620002d8565b5b6200038582620002c7565b9050602081019050919050565b60005b83811015620003b257808201518184015260208101905062000395565b83811115620003c2576000848401525b50505050565b6000620003df620003d9846200035c565b6200033d565b905082815260208101848484011115620003fe57620003fd620002c2565b5b6200040b84828562000392565b509392505050565b600082601f8301126200042b576200042a620002bd565b5b81516200043d848260208601620003c8565b91505092915050565b6000602082840312156200045f576200045e620002b3565b5b600082015167ffffffffffffffff81111562000480576200047f620002b8565b5b6200048e8482850162000413565b91505092915050565b7f4e487b7100000000000000000000000000000000000000000000000000000000600052602260045260246000fd5b60006002820490506001821680620004df57607f821691505b60208210811415620004f657620004f562000497565b5b50919050565b614240806200050c6000396000f3fe6080604052600436106101c25760003560e01c80635b3b136a116100f757806395d89b4111610095578063d547cfb711610064578063d547cfb71461063d578063e985e9c514610668578063e985ed21146106a5578063f2fde38b146106e3576101c2565b806395d89b4114610583578063a22cb465146105ae578063b88d4fde146105d7578063c87b56dd14610600576101c2565b806370a08231116100d157806370a08231146104d9578063715018a6146105165780638d859f3e1461052d5780638da5cb5b14610558576101c2565b80635b3b136a14610433578063634282af1461045e5780636352211e1461049c576101c2565b80632a5c792a116101645780633b4b13811161013e5780633b4b1381146103a75780633ccfd60b146103c357806342842e0e146103cd5780634f6ccce7146103f6576101c2565b80632a5c792a146103145780632f745c591461033f57806332cb6b0c1461037c576101c2565b8063095ea7b3116101a0578063095ea7b31461026c57806309d42b301461029557806318160ddd146102c057806323b872dd146102eb576101c2565b806301ffc9a7146101c757806306fdde0314610204578063081812fc1461022f575b600080fd5b3480156101d357600080fd5b506101ee60048036038101906101e99190612b49565b61070c565b6040516101fb9190612b91565b60405180910390f35b34801561021057600080fd5b50610219610786565b6040516102269190612c45565b60405180910390f35b34801561023b57600080fd5b5061025660048036038101906102519190612c9d565b610818565b6040516102639190612d0b565b60405180910390f35b34801561027857600080fd5b50610293600480360381019061028e9190612d52565b61089d565b005b3480156102a157600080fd5b506102aa6109b5565b6040516102b79190612da1565b60405180910390f35b3480156102cc57600080fd5b506102d56109ba565b6040516102e29190612da1565b60405180910390f35b3480156102f757600080fd5b50610312600480360381019061030d9190612dbc565b6109c7565b005b34801561032057600080fd5b50610329610a27565b6040516103369190612f0b565b60405180910390f35b34801561034b57600080fd5b5061036660048036038101906103619190612d52565b610ae6565b6040516103739190612da1565b60405180910390f35b34801561038857600080fd5b50610391610b8b565b60405161039e9190612da1565b60405180910390f35b6103c160048036038101906103bc9190612c9d565b610b92565b005b6103cb610ccf565b005b3480156103d957600080fd5b506103f460048036038101906103ef9190612dbc565b610e43565b005b34801561040257600080fd5b5061041d60048036038101906104189190612c9d565b610e63565b60405161042a9190612da1565b60405180910390f35b34801561043f57600080fd5b50610448610ed4565b6040516104559190612f0b565b60405180910390f35b34801561046a57600080fd5b5061048560048036038101906104809190612c9d565b610fd0565b604051610493929190612f2d565b60405180910390f35b3480156104a857600080fd5b506104c360048036038101906104be9190612c9d565b611024565b6040516104d09190612d0b565b60405180910390f35b3480156104e557600080fd5b5061050060048036038101906104fb9190612f56565b6110d6565b60405161050d9190612da1565b60405180910390f35b34801561052257600080fd5b5061052b61118e565b005b34801561053957600080fd5b50610542611216565b60405161054f9190612da1565b60405180910390f35b34801561056457600080fd5b5061056d611221565b60405161057a9190612d0b565b60405180910390f35b34801561058f57600080fd5b5061059861124b565b6040516105a59190612c45565b60405180910390f35b3480156105ba57600080fd5b506105d560048036038101906105d09190612faf565b6112dd565b005b3480156105e357600080fd5b506105fe60048036038101906105f99190613124565b6112f3565b005b34801561060c57600080fd5b5061062760048036038101906106229190612c9d565b611355565b6040516106349190612c45565b60405180910390f35b34801561064957600080fd5b506106526113fc565b60405161065f9190612c45565b60405180910390f35b34801561067457600080fd5b5061068f600480360381019061068a91906131a7565b61148a565b60405161069c9190612b91565b60405180910390f35b3480156106b157600080fd5b506106cc60048036038101906106c79190612d52565b61151e565b6040516106da929190612f2d565b60405180910390f35b3480156106ef57600080fd5b5061070a60048036038101906107059190612f56565b61157f565b005b60007f780e9d63000000000000000000000000000000000000000000000000000000007bffffffffffffffffffffffffffffffffffffffffffffffffffffffff1916827bffffffffffffffffffffffffffffffffffffffffffffffffffffffff1916148061077f575061077e82611677565b5b9050919050565b60606000805461079590613216565b80601f01602080910402602001604051908101604052809291908181526020018280546107c190613216565b801561080e5780601f106107e35761010080835404028352916020019161080e565b820191906000526020600020905b8154815290600101906020018083116107f157829003601f168201915b5050505050905090565b600061082382611759565b610862576040517f08c379a0000000000000000000000000000000000000000000000000000000008152600401610859906132ba565b60405180910390fd5b6004600083815260200190815260200160002060009054906101000a900473ffffffffffffffffffffffffffffffffffffffff169050919050565b60006108a882611024565b90508073ffffffffffffffffffffffffffffffffffffffff168373ffffffffffffffffffffffffffffffffffffffff161415610919576040517f08c379a00000000000000000000000000000000000000000000000000000000081526004016109109061334c565b60405180910390fd5b8073ffffffffffffffffffffffffffffffffffffffff166109386117c5565b73ffffffffffffffffffffffffffffffffffffffff1614806109675750610966816109616117c5565b61148a565b5b6109a6576040517f08c379a000000000000000000000000000000000000000000000000000000000815260040161099d906133de565b60405180910390fd5b6109b083836117cd565b505050565b600381565b6000600880549050905090565b6109d86109d26117c5565b82611886565b610a17576040517f08c379a0000000000000000000000000000000000000000000000000000000008152600401610a0e90613470565b60405180910390fd5b610a22838383611964565b505050565b6060600d805480602002602001604051908101604052809291908181526020016000905b82821015610add5783829060005260206000209060020201604051806040016040529081600082015481526020016001820160009054906101000a900473ffffffffffffffffffffffffffffffffffffffff1673ffffffffffffffffffffffffffffffffffffffff1673ffffffffffffffffffffffffffffffffffffffff168152505081526020019060010190610a4b565b50505050905090565b6000610af1836110d6565b8210610b32576040517f08c379a0000000000000000000000000000000000000000000000000000000008152600401610b2990613502565b60405180910390fd5b600660008473ffffffffffffffffffffffffffffffffffffffff1673ffffffffffffffffffffffffffffffffffffffff168152602001908152602001600020600083815260200190815260200160002054905092915050565b620f424081565b6000610b9e600b611bcb565b9050620f4240610bb78383611bd990919063ffffffff16565b1115610bf8576040517f08c379a0000000000000000000000000000000000000000000000000000000008152600401610bef9061356e565b60405180910390fd5b600082118015610c09575060038211155b610c48576040517f08c379a0000000000000000000000000000000000000000000000000000000008152600401610c3f90613600565b60405180910390fd5b610c628266470de4df820000611bef90919063ffffffff16565b341015610ca4576040517f08c379a0000000000000000000000000000000000000000000000000000000008152600401610c9b9061366c565b60405180910390fd5b60005b82811015610cca57610cb7611c05565b8080610cc2906136bb565b915050610ca7565b505050565b610cd76117c5565b73ffffffffffffffffffffffffffffffffffffffff16610cf5611221565b73ffffffffffffffffffffffffffffffffffffffff1614610d4b576040517f08c379a0000000000000000000000000000000000000000000000000000000008152600401610d4290613750565b60405180910390fd5b600047905060008111610d93576040517f08c379a0000000000000000000000000000000000000000000000000000000008152600401610d8a906137bc565b60405180910390fd5b60003373ffffffffffffffffffffffffffffffffffffffff1682604051610db99061380d565b60006040518083038185875af1925050503d8060008114610df6576040519150601f19603f3d011682016040523d82523d6000602084013e610dfb565b606091505b5050905080610e3f576040517f08c379a0000000000000000000000000000000000000000000000000000000008152600401610e369061386e565b60405180910390fd5b5050565b610e5e838383604051806020016040528060008152506112f3565b505050565b6000610e6d6109ba565b8210610eae576040517f08c379a0000000000000000000000000000000000000000000000000000000008152600401610ea590613900565b60405180910390fd5b60088281548110610ec257610ec1613920565b5b90600052602060002001549050919050565b6060600e60003373ffffffffffffffffffffffffffffffffffffffff1673ffffffffffffffffffffffffffffffffffffffff168152602001908152602001600020805480602002602001604051908101604052809291908181526020016000905b82821015610fc75783829060005260206000209060020201604051806040016040529081600082015481526020016001820160009054906101000a900473ffffffffffffffffffffffffffffffffffffffff1673ffffffffffffffffffffffffffffffffffffffff1673ffffffffffffffffffffffffffffffffffffffff168152505081526020019060010190610f35565b50505050905090565b600d8181548110610fe057600080fd5b90600052602060002090600202016000915090508060000154908060010160009054906101000a900473ffffffffffffffffffffffffffffffffffffffff16905082565b6000806002600084815260200190815260200160002060009054906101000a900473ffffffffffffffffffffffffffffffffffffffff169050600073ffffffffffffffffffffffffffffffffffffffff168173ffffffffffffffffffffffffffffffffffffffff1614156110cd576040517f08c379a00000000000000000000000000000000000000000000000000000000081526004016110c4906139c1565b60405180910390fd5b80915050919050565b60008073ffffffffffffffffffffffffffffffffffffffff168273ffffffffffffffffffffffffffffffffffffffff161415611147576040517f08c379a000000000000000000000000000000000000000000000000000000000815260040161113e90613a53565b60405180910390fd5b600360008373ffffffffffffffffffffffffffffffffffffffff1673ffffffffffffffffffffffffffffffffffffffff168152602001908152602001600020549050919050565b6111966117c5565b73ffffffffffffffffffffffffffffffffffffffff166111b4611221565b73ffffffffffffffffffffffffffffffffffffffff161461120a576040517f08c379a000000000000000000000000000000000000000000000000000000000815260040161120190613750565b60405180910390fd5b6112146000611db9565b565b66470de4df82000081565b6000600a60009054906101000a900473ffffffffffffffffffffffffffffffffffffffff16905090565b60606001805461125a90613216565b80601f016020809104026020016040519081016040528092919081815260200182805461128690613216565b80156112d35780601f106112a8576101008083540402835291602001916112d3565b820191906000526020600020905b8154815290600101906020018083116112b657829003601f168201915b5050505050905090565b6112ef6112e86117c5565b8383611e7f565b5050565b6113046112fe6117c5565b83611886565b611343576040517f08c379a000000000000000000000000000000000000000000000000000000000815260040161133a90613470565b60405180910390fd5b61134f84848484611fec565b50505050565b606061136082611759565b61139f576040517f08c379a000000000000000000000000000000000000000000000000000000000815260040161139690613ae5565b60405180910390fd5b60006113a9612048565b905060008151116113c957604051806020016040528060008152506113f4565b806113d3846120da565b6040516020016113e4929190613b41565b6040516020818303038152906040525b915050919050565b600c805461140990613216565b80601f016020809104026020016040519081016040528092919081815260200182805461143590613216565b80156114825780601f1061145757610100808354040283529160200191611482565b820191906000526020600020905b81548152906001019060200180831161146557829003601f168201915b505050505081565b6000600560008473ffffffffffffffffffffffffffffffffffffffff1673ffffffffffffffffffffffffffffffffffffffff16815260200190815260200160002060008373ffffffffffffffffffffffffffffffffffffffff1673ffffffffffffffffffffffffffffffffffffffff16815260200190815260200160002060009054906101000a900460ff16905092915050565b600e602052816000526040600020818154811061153a57600080fd5b9060005260206000209060020201600091509150508060000154908060010160009054906101000a900473ffffffffffffffffffffffffffffffffffffffff16905082565b6115876117c5565b73ffffffffffffffffffffffffffffffffffffffff166115a5611221565b73ffffffffffffffffffffffffffffffffffffffff16146115fb576040517f08c379a00000000000000000000000000000000000000000000000000000000081526004016115f290613750565b60405180910390fd5b600073ffffffffffffffffffffffffffffffffffffffff168173ffffffffffffffffffffffffffffffffffffffff16141561166b576040517f08c379a000000000000000000000000000000000000000000000000000000000815260040161166290613bd7565b60405180910390fd5b61167481611db9565b50565b60007f80ac58cd000000000000000000000000000000000000000000000000000000007bffffffffffffffffffffffffffffffffffffffffffffffffffffffff1916827bffffffffffffffffffffffffffffffffffffffffffffffffffffffff1916148061174257507f5b5e139f000000000000000000000000000000000000000000000000000000007bffffffffffffffffffffffffffffffffffffffffffffffffffffffff1916827bffffffffffffffffffffffffffffffffffffffffffffffffffffffff1916145b8061175257506117518261223b565b5b9050919050565b60008073ffffffffffffffffffffffffffffffffffffffff166002600084815260200190815260200160002060009054906101000a900473ffffffffffffffffffffffffffffffffffffffff1673ffffffffffffffffffffffffffffffffffffffff1614159050919050565b600033905090565b816004600083815260200190815260200160002060006101000a81548173ffffffffffffffffffffffffffffffffffffffff021916908373ffffffffffffffffffffffffffffffffffffffff160217905550808273ffffffffffffffffffffffffffffffffffffffff1661184083611024565b73ffffffffffffffffffffffffffffffffffffffff167f8c5be1e5ebec7d5bd14f71427d1e84f3dd0314c0f7b2291e5b200ac8c7c3b92560405160405180910390a45050565b600061189182611759565b6118d0576040517f08c379a00000000000000000000000000000000000000000000000000000000081526004016118c790613c69565b60405180910390fd5b60006118db83611024565b90508073ffffffffffffffffffffffffffffffffffffffff168473ffffffffffffffffffffffffffffffffffffffff16148061194a57508373ffffffffffffffffffffffffffffffffffffffff1661193284610818565b73ffffffffffffffffffffffffffffffffffffffff16145b8061195b575061195a818561148a565b5b91505092915050565b8273ffffffffffffffffffffffffffffffffffffffff1661198482611024565b73ffffffffffffffffffffffffffffffffffffffff16146119da576040517f08c379a00000000000000000000000000000000000000000000000000000000081526004016119d190613cfb565b60405180910390fd5b600073ffffffffffffffffffffffffffffffffffffffff168273ffffffffffffffffffffffffffffffffffffffff161415611a4a576040517f08c379a0000000000000000000000000000000000000000000000000000000008152600401611a4190613d8d565b60405180910390fd5b611a558383836122a5565b611a606000826117cd565b6001600360008573ffffffffffffffffffffffffffffffffffffffff1673ffffffffffffffffffffffffffffffffffffffff1681526020019081526020016000206000828254611ab09190613dad565b925050819055506001600360008473ffffffffffffffffffffffffffffffffffffffff1673ffffffffffffffffffffffffffffffffffffffff1681526020019081526020016000206000828254611b079190613de1565b92505081905550816002600083815260200190815260200160002060006101000a81548173ffffffffffffffffffffffffffffffffffffffff021916908373ffffffffffffffffffffffffffffffffffffffff160217905550808273ffffffffffffffffffffffffffffffffffffffff168473ffffffffffffffffffffffffffffffffffffffff167fddf252ad1be2c89b69c2b068fc378daa952ba7f163c4a11628f55a4df523b3ef60405160405180910390a4611bc68383836123b9565b505050565b600081600001549050919050565b60008183611be79190613de1565b905092915050565b60008183611bfd9190613e37565b905092915050565b6000611c11600b611bcb565b9050611c1d33826123be565b600d60405180604001604052808381526020013373ffffffffffffffffffffffffffffffffffffffff1681525090806001815401808255809150506001900390600052602060002090600202016000909190919091506000820151816000015560208201518160010160006101000a81548173ffffffffffffffffffffffffffffffffffffffff021916908373ffffffffffffffffffffffffffffffffffffffff1602179055505050600e60003373ffffffffffffffffffffffffffffffffffffffff1673ffffffffffffffffffffffffffffffffffffffff16815260200190815260200160002060405180604001604052808381526020013373ffffffffffffffffffffffffffffffffffffffff1681525090806001815401808255809150506001900390600052602060002090600202016000909190919091506000820151816000015560208201518160010160006101000a81548173ffffffffffffffffffffffffffffffffffffffff021916908373ffffffffffffffffffffffffffffffffffffffff1602179055505050611db6600b6123dc565b50565b6000600a60009054906101000a900473ffffffffffffffffffffffffffffffffffffffff16905081600a60006101000a81548173ffffffffffffffffffffffffffffffffffffffff021916908373ffffffffffffffffffffffffffffffffffffffff1602179055508173ffffffffffffffffffffffffffffffffffffffff168173ffffffffffffffffffffffffffffffffffffffff167f8be0079c531659141344cd1fd0a4f28419497f9722a3daafe3b4186f6b6457e060405160405180910390a35050565b8173ffffffffffffffffffffffffffffffffffffffff168373ffffffffffffffffffffffffffffffffffffffff161415611eee576040517f08c379a0000000000000000000000000000000000000000000000000000000008152600401611ee590613edd565b60405180910390fd5b80600560008573ffffffffffffffffffffffffffffffffffffffff1673ffffffffffffffffffffffffffffffffffffffff16815260200190815260200160002060008473ffffffffffffffffffffffffffffffffffffffff1673ffffffffffffffffffffffffffffffffffffffff16815260200190815260200160002060006101000a81548160ff0219169083151502179055508173ffffffffffffffffffffffffffffffffffffffff168373ffffffffffffffffffffffffffffffffffffffff167f17307eab39ab6107e8899845ad3d59bd9653f200f220920489ca2b5937696c3183604051611fdf9190612b91565b60405180910390a3505050565b611ff7848484611964565b612003848484846123f2565b612042576040517f08c379a000000000000000000000000000000000000000000000000000000000815260040161203990613f6f565b60405180910390fd5b50505050565b6060600c805461205790613216565b80601f016020809104026020016040519081016040528092919081815260200182805461208390613216565b80156120d05780601f106120a5576101008083540402835291602001916120d0565b820191906000526020600020905b8154815290600101906020018083116120b357829003601f168201915b5050505050905090565b60606000821415612122576040518060400160405280600181526020017f30000000000000000000000000000000000000000000000000000000000000008152509050612236565b600082905060005b6000821461215457808061213d906136bb565b915050600a8261214d9190613fbe565b915061212a565b60008167ffffffffffffffff8111156121705761216f612ff9565b5b6040519080825280601f01601f1916602001820160405280156121a25781602001600182028036833780820191505090505b5090505b6000851461222f576001826121bb9190613dad565b9150600a856121ca9190613fef565b60306121d69190613de1565b60f81b8183815181106121ec576121eb613920565b5b60200101907effffffffffffffffffffffffffffffffffffffffffffffffffffffffffffff1916908160001a905350600a856122289190613fbe565b94506121a6565b8093505050505b919050565b60007f01ffc9a7000000000000000000000000000000000000000000000000000000007bffffffffffffffffffffffffffffffffffffffffffffffffffffffff1916827bffffffffffffffffffffffffffffffffffffffffffffffffffffffff1916149050919050565b6122b083838361257a565b600073ffffffffffffffffffffffffffffffffffffffff168373ffffffffffffffffffffffffffffffffffffffff1614156122f3576122ee8161257f565b612332565b8173ffffffffffffffffffffffffffffffffffffffff168373ffffffffffffffffffffffffffffffffffffffff16146123315761233083826125c8565b5b5b600073ffffffffffffffffffffffffffffffffffffffff168273ffffffffffffffffffffffffffffffffffffffff1614156123755761237081612735565b6123b4565b8273ffffffffffffffffffffffffffffffffffffffff168273ffffffffffffffffffffffffffffffffffffffff16146123b3576123b28282612806565b5b5b505050565b505050565b6123d8828260405180602001604052806000815250612885565b5050565b6001816000016000828254019250508190555050565b60006124138473ffffffffffffffffffffffffffffffffffffffff166128e0565b1561256d578373ffffffffffffffffffffffffffffffffffffffff1663150b7a0261243c6117c5565b8786866040518563ffffffff1660e01b815260040161245e9493929190614075565b6020604051808303816000875af192505050801561249a57506040513d601f19601f8201168201806040525081019061249791906140d6565b60015b61251d573d80600081146124ca576040519150601f19603f3d011682016040523d82523d6000602084013e6124cf565b606091505b50600081511415612515576040517f08c379a000000000000000000000000000000000000000000000000000000000815260040161250c90613f6f565b60405180910390fd5b805181602001fd5b63150b7a0260e01b7bffffffffffffffffffffffffffffffffffffffffffffffffffffffff1916817bffffffffffffffffffffffffffffffffffffffffffffffffffffffff191614915050612572565b600190505b949350505050565b505050565b6008805490506009600083815260200190815260200160002081905550600881908060018154018082558091505060019003906000526020600020016000909190919091505550565b600060016125d5846110d6565b6125df9190613dad565b90506000600760008481526020019081526020016000205490508181146126c4576000600660008673ffffffffffffffffffffffffffffffffffffffff1673ffffffffffffffffffffffffffffffffffffffff168152602001908152602001600020600084815260200190815260200160002054905080600660008773ffffffffffffffffffffffffffffffffffffffff1673ffffffffffffffffffffffffffffffffffffffff168152602001908152602001600020600084815260200190815260200160002081905550816007600083815260200190815260200160002081905550505b6007600084815260200190815260200160002060009055600660008573ffffffffffffffffffffffffffffffffffffffff1673ffffffffffffffffffffffffffffffffffffffff16815260200190815260200160002060008381526020019081526020016000206000905550505050565b600060016008805490506127499190613dad565b905060006009600084815260200190815260200160002054905060006008838154811061277957612778613920565b5b90600052602060002001549050806008838154811061279b5761279a613920565b5b9060005260206000200181905550816009600083815260200190815260200160002081905550600960008581526020019081526020016000206000905560088054806127ea576127e9614103565b5b6001900381819060005260206000200160009055905550505050565b6000612811836110d6565b905081600660008573ffffffffffffffffffffffffffffffffffffffff1673ffffffffffffffffffffffffffffffffffffffff168152602001908152602001600020600083815260200190815260200160002081905550806007600084815260200190815260200160002081905550505050565b61288f8383612903565b61289c60008484846123f2565b6128db576040517f08c379a00000000000000000000000000000000000000000000000000000000081526004016128d290613f6f565b60405180910390fd5b505050565b6000808273ffffffffffffffffffffffffffffffffffffffff163b119050919050565b600073ffffffffffffffffffffffffffffffffffffffff168273ffffffffffffffffffffffffffffffffffffffff161415612973576040517f08c379a000000000000000000000000000000000000000000000000000000000815260040161296a9061417e565b60405180910390fd5b61297c81611759565b156129bc576040517f08c379a00000000000000000000000000000000000000000000000000000000081526004016129b3906141ea565b60405180910390fd5b6129c8600083836122a5565b6001600360008473ffffffffffffffffffffffffffffffffffffffff1673ffffffffffffffffffffffffffffffffffffffff1681526020019081526020016000206000828254612a189190613de1565b92505081905550816002600083815260200190815260200160002060006101000a81548173ffffffffffffffffffffffffffffffffffffffff021916908373ffffffffffffffffffffffffffffffffffffffff160217905550808273ffffffffffffffffffffffffffffffffffffffff16600073ffffffffffffffffffffffffffffffffffffffff167fddf252ad1be2c89b69c2b068fc378daa952ba7f163c4a11628f55a4df523b3ef60405160405180910390a4612ad9600083836123b9565b5050565b6000604051905090565b600080fd5b600080fd5b60007fffffffff0000000000000000000000000000000000000000000000000000000082169050919050565b612b2681612af1565b8114612b3157600080fd5b50565b600081359050612b4381612b1d565b92915050565b600060208284031215612b5f57612b5e612ae7565b5b6000612b6d84828501612b34565b91505092915050565b60008115159050919050565b612b8b81612b76565b82525050565b6000602082019050612ba66000830184612b82565b92915050565b600081519050919050565b600082825260208201905092915050565b60005b83811015612be6578082015181840152602081019050612bcb565b83811115612bf5576000848401525b50505050565b6000601f19601f8301169050919050565b6000612c1782612bac565b612c218185612bb7565b9350612c31818560208601612bc8565b612c3a81612bfb565b840191505092915050565b60006020820190508181036000830152612c5f8184612c0c565b905092915050565b6000819050919050565b612c7a81612c67565b8114612c8557600080fd5b50565b600081359050612c9781612c71565b92915050565b600060208284031215612cb357612cb2612ae7565b5b6000612cc184828501612c88565b91505092915050565b600073ffffffffffffffffffffffffffffffffffffffff82169050919050565b6000612cf582612cca565b9050919050565b612d0581612cea565b82525050565b6000602082019050612d206000830184612cfc565b92915050565b612d2f81612cea565b8114612d3a57600080fd5b50565b600081359050612d4c81612d26565b92915050565b60008060408385031215612d6957612d68612ae7565b5b6000612d7785828601612d3d565b9250506020612d8885828601612c88565b9150509250929050565b612d9b81612c67565b82525050565b6000602082019050612db66000830184612d92565b92915050565b600080600060608486031215612dd557612dd4612ae7565b5b6000612de386828701612d3d565b9350506020612df486828701612d3d565b9250506040612e0586828701612c88565b9150509250925092565b600081519050919050565b600082825260208201905092915050565b6000819050602082019050919050565b612e4481612c67565b82525050565b612e5381612cea565b82525050565b604082016000820151612e6f6000850182612e3b565b506020820151612e826020850182612e4a565b50505050565b6000612e948383612e59565b60408301905092915050565b6000602082019050919050565b6000612eb882612e0f565b612ec28185612e1a565b9350612ecd83612e2b565b8060005b83811015612efe578151612ee58882612e88565b9750612ef083612ea0565b925050600181019050612ed1565b5085935050505092915050565b60006020820190508181036000830152612f258184612ead565b905092915050565b6000604082019050612f426000830185612d92565b612f4f6020830184612cfc565b9392505050565b600060208284031215612f6c57612f6b612ae7565b5b6000612f7a84828501612d3d565b91505092915050565b612f8c81612b76565b8114612f9757600080fd5b50565b600081359050612fa981612f83565b92915050565b60008060408385031215612fc657612fc5612ae7565b5b6000612fd485828601612d3d565b9250506020612fe585828601612f9a565b9150509250929050565b600080fd5b600080fd5b7f4e487b7100000000000000000000000000000000000000000000000000000000600052604160045260246000fd5b61303182612bfb565b810181811067ffffffffffffffff821117156130505761304f612ff9565b5b80604052505050565b6000613063612add565b905061306f8282613028565b919050565b600067ffffffffffffffff82111561308f5761308e612ff9565b5b61309882612bfb565b9050602081019050919050565b82818337600083830152505050565b60006130c76130c284613074565b613059565b9050828152602081018484840111156130e3576130e2612ff4565b5b6130ee8482856130a5565b509392505050565b600082601f83011261310b5761310a612fef565b5b813561311b8482602086016130b4565b91505092915050565b6000806000806080858703121561313e5761313d612ae7565b5b600061314c87828801612d3d565b945050602061315d87828801612d3d565b935050604061316e87828801612c88565b925050606085013567ffffffffffffffff81111561318f5761318e612aec565b5b61319b878288016130f6565b91505092959194509250565b600080604083850312156131be576131bd612ae7565b5b60006131cc85828601612d3d565b92505060206131dd85828601612d3d565b9150509250929050565b7f4e487b7100000000000000000000000000000000000000000000000000000000600052602260045260246000fd5b6000600282049050600182168061322e57607f821691505b60208210811415613242576132416131e7565b5b50919050565b7f4552433732313a20617070726f76656420717565727920666f72206e6f6e657860008201527f697374656e7420746f6b656e0000000000000000000000000000000000000000602082015250565b60006132a4602c83612bb7565b91506132af82613248565b604082019050919050565b600060208201905081810360008301526132d381613297565b9050919050565b7f4552433732313a20617070726f76616c20746f2063757272656e74206f776e6560008201527f7200000000000000000000000000000000000000000000000000000000000000602082015250565b6000613336602183612bb7565b9150613341826132da565b604082019050919050565b6000602082019050818103600083015261336581613329565b9050919050565b7f4552433732313a20617070726f76652063616c6c6572206973206e6f74206f7760008201527f6e6572206e6f7220617070726f76656420666f7220616c6c0000000000000000602082015250565b60006133c8603883612bb7565b91506133d38261336c565b604082019050919050565b600060208201905081810360008301526133f7816133bb565b9050919050565b7f4552433732313a207472616e736665722063616c6c6572206973206e6f74206f60008201527f776e6572206e6f7220617070726f766564000000000000000000000000000000602082015250565b600061345a603183612bb7565b9150613465826133fe565b604082019050919050565b600060208201905081810360008301526134898161344d565b9050919050565b7f455243373231456e756d657261626c653a206f776e657220696e646578206f7560008201527f74206f6620626f756e6473000000000000000000000000000000000000000000602082015250565b60006134ec602b83612bb7565b91506134f782613490565b604082019050919050565b6000602082019050818103600083015261351b816134df565b9050919050565b7f43616e6e6f74206d696e74206d6f7265207468616e204d41585f535550504c59600082015250565b6000613558602083612bb7565b915061356382613522565b602082019050919050565b600060208201905081810360008301526135878161354b565b9050919050565b7f43616e6e6f74206d696e74206d6f7265207468616e204d41585f5045525f4d4960008201527f4e54000000000000000000000000000000000000000000000000000000000000602082015250565b60006135ea602283612bb7565b91506135f58261358e565b604082019050919050565b60006020820190508181036000830152613619816135dd565b9050919050565b7f4e6f7420656e6f75676820657468657220746f206d696e7420616e204e465400600082015250565b6000613656601f83612bb7565b915061366182613620565b602082019050919050565b6000602082019050818103600083015261368581613649565b9050919050565b7f4e487b7100000000000000000000000000000000000000000000000000000000600052601160045260246000fd5b60006136c682612c67565b91507fffffffffffffffffffffffffffffffffffffffffffffffffffffffffffffffff8214156136f9576136f861368c565b5b600182019050919050565b7f4f776e61626c653a2063616c6c6572206973206e6f7420746865206f776e6572600082015250565b600061373a602083612bb7565b915061374582613704565b602082019050919050565b600060208201905081810360008301526137698161372d565b9050919050565b7f4e6f20657468657220746f207769746864726177000000000000000000000000600082015250565b60006137a6601483612bb7565b91506137b182613770565b602082019050919050565b600060208201905081810360008301526137d581613799565b9050919050565b600081905092915050565b50565b60006137f76000836137dc565b9150613802826137e7565b600082019050919050565b6000613818826137ea565b9150819050919050565b7f4661696c656420746f2073656e6420657468657220746f206f776e65722e0000600082015250565b6000613858601e83612bb7565b915061386382613822565b602082019050919050565b600060208201905081810360008301526138878161384b565b9050919050565b7f455243373231456e756d657261626c653a20676c6f62616c20696e646578206f60008201527f7574206f6620626f756e64730000000000000000000000000000000000000000602082015250565b60006138ea602c83612bb7565b91506138f58261388e565b604082019050919050565b60006020820190508181036000830152613919816138dd565b9050919050565b7f4e487b7100000000000000000000000000000000000000000000000000000000600052603260045260246000fd5b7f4552433732313a206f776e657220717565727920666f72206e6f6e657869737460008201527f656e7420746f6b656e0000000000000000000000000000000000000000000000602082015250565b60006139ab602983612bb7565b91506139b68261394f565b604082019050919050565b600060208201905081810360008301526139da8161399e565b9050919050565b7f4552433732313a2062616c616e636520717565727920666f7220746865207a6560008201527f726f206164647265737300000000000000000000000000000000000000000000602082015250565b6000613a3d602a83612bb7565b9150613a48826139e1565b604082019050919050565b60006020820190508181036000830152613a6c81613a30565b9050919050565b7f4552433732314d657461646174613a2055524920717565727920666f72206e6f60008201527f6e6578697374656e7420746f6b656e0000000000000000000000000000000000602082015250565b6000613acf602f83612bb7565b9150613ada82613a73565b604082019050919050565b60006020820190508181036000830152613afe81613ac2565b9050919050565b600081905092915050565b6000613b1b82612bac565b613b258185613b05565b9350613b35818560208601612bc8565b80840191505092915050565b6000613b4d8285613b10565b9150613b598284613b10565b91508190509392505050565b7f4f776e61626c653a206e6577206f776e657220697320746865207a65726f206160008201527f6464726573730000000000000000000000000000000000000000000000000000602082015250565b6000613bc1602683612bb7565b9150613bcc82613b65565b604082019050919050565b60006020820190508181036000830152613bf081613bb4565b9050919050565b7f4552433732313a206f70657261746f7220717565727920666f72206e6f6e657860008201527f697374656e7420746f6b656e0000000000000000000000000000000000000000602082015250565b6000613c53602c83612bb7565b9150613c5e82613bf7565b604082019050919050565b60006020820190508181036000830152613c8281613c46565b9050919050565b7f4552433732313a207472616e736665722066726f6d20696e636f72726563742060008201527f6f776e6572000000000000000000000000000000000000000000000000000000602082015250565b6000613ce5602583612bb7565b9150613cf082613c89565b604082019050919050565b60006020820190508181036000830152613d1481613cd8565b9050919050565b7f4552433732313a207472616e7366657220746f20746865207a65726f2061646460008201527f7265737300000000000000000000000000000000000000000000000000000000602082015250565b6000613d77602483612bb7565b9150613d8282613d1b565b604082019050919050565b60006020820190508181036000830152613da681613d6a565b9050919050565b6000613db882612c67565b9150613dc383612c67565b925082821015613dd657613dd561368c565b5b828203905092915050565b6000613dec82612c67565b9150613df783612c67565b9250827fffffffffffffffffffffffffffffffffffffffffffffffffffffffffffffffff03821115613e2c57613e2b61368c565b5b828201905092915050565b6000613e4282612c67565b9150613e4d83612c67565b9250817fffffffffffffffffffffffffffffffffffffffffffffffffffffffffffffffff0483118215151615613e8657613e8561368c565b5b828202905092915050565b7f4552433732313a20617070726f766520746f2063616c6c657200000000000000600082015250565b6000613ec7601983612bb7565b9150613ed282613e91565b602082019050919050565b60006020820190508181036000830152613ef681613eba565b9050919050565b7f4552433732313a207472616e7366657220746f206e6f6e20455243373231526560008201527f63656976657220696d706c656d656e7465720000000000000000000000000000602082015250565b6000613f59603283612bb7565b9150613f6482613efd565b604082019050919050565b60006020820190508181036000830152613f8881613f4c565b9050919050565b7f4e487b7100000000000000000000000000000000000000000000000000000000600052601260045260246000fd5b6000613fc982612c67565b9150613fd483612c67565b925082613fe457613fe3613f8f565b5b828204905092915050565b6000613ffa82612c67565b915061400583612c67565b92508261401557614014613f8f565b5b828206905092915050565b600081519050919050565b600082825260208201905092915050565b600061404782614020565b614051818561402b565b9350614061818560208601612bc8565b61406a81612bfb565b840191505092915050565b600060808201905061408a6000830187612cfc565b6140976020830186612cfc565b6140a46040830185612d92565b81810360608301526140b6818461403c565b905095945050505050565b6000815190506140d081612b1d565b92915050565b6000602082840312156140ec576140eb612ae7565b5b60006140fa848285016140c1565b91505092915050565b7f4e487b7100000000000000000000000000000000000000000000000000000000600052603160045260246000fd5b7f4552433732313a206d696e7420746f20746865207a65726f2061646472657373600082015250565b6000614168602083612bb7565b915061417382614132565b602082019050919050565b600060208201905081810360008301526141978161415b565b9050919050565b7f4552433732313a20746f6b656e20616c7265616479206d696e74656400000000600082015250565b60006141d4601c83612bb7565b91506141df8261419e565b602082019050919050565b60006020820190508181036000830152614203816141c7565b905091905056fea264697066735822122032014cfe88252e43808a4b37ad20a2fee0f6c7e28186120853085bf403adfbda64736f6c634300080b0033",
  "immutableReferences": {},
  "source": "// SPDX-License-Identifier: MIT\r\npragma solidity ^0.8.11;\r\n\r\nimport \"@openzeppelin/contracts/utils/Counters.sol\";\r\nimport \"@openzeppelin/contracts/access/Ownable.sol\";\r\nimport \"@openzeppelin/contracts/utils/math/SafeMath.sol\";\r\nimport \"@openzeppelin/contracts/token/ERC721/extensions/ERC721Enumerable.sol\";\r\n\r\ncontract NobleToken is ERC721Enumerable, Ownable {\r\n    using SafeMath for uint256;\r\n    using Counters for Counters.Counter;\r\n\r\n    Counters.Counter private _tokenIds;\r\n\r\n    uint public constant MAX_SUPPLY = 1000000;\r\n    uint public constant PRICE = 0.02 ether;\r\n    uint public constant MAX_PER_MINT = 3;\r\n\r\n    string public baseTokenURI;\r\n\r\n    struct Noble {\r\n        uint tokenId;\r\n        address owner;\r\n    }\r\n\r\n    Noble[] public allTokens;\r\n    mapping(address => Noble[]) public tokenAddress;\r\n\r\n    constructor(string memory baseURI) ERC721(\"NobleToken\", \"NBL\") {\r\n        setBaseURI(baseURI);\r\n    }\r\n\r\n    function _baseURI() internal view virtual override returns (string memory) {\r\n        return baseTokenURI;\r\n    }\r\n\r\n    function setBaseURI(string memory _baseTokenURI) internal {\r\n        baseTokenURI = _baseTokenURI;\r\n    }\r\n\r\n    function mintNFTs(uint _count) public payable {\r\n        uint totalMinted = _tokenIds.current();\r\n\r\n        require(totalMinted.add(_count) <= MAX_SUPPLY, \"Cannot mint more than MAX_SUPPLY\");\r\n        require(_count >0 && _count <= MAX_PER_MINT, \"Cannot mint more than MAX_PER_MINT\");\r\n        require(msg.value >= PRICE.mul(_count), \"Not enough ether to mint an NFT\");\r\n        \r\n        for(uint i = 0; i < _count; i++) {\r\n            _mintSingleNFT();\r\n        }\r\n    }\r\n\r\n    function _mintSingleNFT() private {\r\n        uint newTokenId = _tokenIds.current();\r\n        _safeMint(msg.sender, newTokenId);\r\n        allTokens.push(Noble(newTokenId, msg.sender));\r\n        tokenAddress[msg.sender].push(Noble(newTokenId, msg.sender));\r\n        _tokenIds.increment();\r\n    }\r\n\r\n    function getAllTokens() external view returns(Noble[] memory){\r\n        return allTokens;\r\n    }\r\n\r\n    function getMyTokens() external view returns (Noble[] memory){\r\n        return tokenAddress[msg.sender];\r\n    }\r\n\r\n    function withdraw() public payable onlyOwner {\r\n        uint balance = address(this).balance;\r\n        require(balance > 0, \"No ether to withdraw\");\r\n        \r\n        (bool success, ) = (msg.sender).call{value: balance}(\"\");\r\n        require(success, \"Failed to send ether to owner.\");\r\n    }\r\n}\r\n\r\n\r\n\r\n",
  "sourcePath": "D:\\Github\\NobleFantasyTournament\\noble-fantasy-tournament\\contracts\\NobleToken.sol",
  "compiler": {
    "name": "solc",
    "version": "0.8.11+commit.d7f03943.Emscripten.clang"
  },
  "schemaVersion": "3.4.4",
  "updatedAt": "2022-05-02T13:50:42.445Z",
  "networkType": "ethereum",
  "devdoc": {
    "kind": "dev",
    "methods": {
      "approve(address,uint256)": {
        "details": "See {IERC721-approve}."
      },
      "balanceOf(address)": {
        "details": "See {IERC721-balanceOf}."
      },
      "getApproved(uint256)": {
        "details": "See {IERC721-getApproved}."
      },
      "isApprovedForAll(address,address)": {
        "details": "See {IERC721-isApprovedForAll}."
      },
      "name()": {
        "details": "See {IERC721Metadata-name}."
      },
      "owner()": {
        "details": "Returns the address of the current owner."
      },
      "ownerOf(uint256)": {
        "details": "See {IERC721-ownerOf}."
      },
      "renounceOwnership()": {
        "details": "Leaves the contract without owner. It will not be possible to call `onlyOwner` functions anymore. Can only be called by the current owner. NOTE: Renouncing ownership will leave the contract without an owner, thereby removing any functionality that is only available to the owner."
      },
      "safeTransferFrom(address,address,uint256)": {
        "details": "See {IERC721-safeTransferFrom}."
      },
      "safeTransferFrom(address,address,uint256,bytes)": {
        "details": "See {IERC721-safeTransferFrom}."
      },
      "setApprovalForAll(address,bool)": {
        "details": "See {IERC721-setApprovalForAll}."
      },
      "supportsInterface(bytes4)": {
        "details": "See {IERC165-supportsInterface}."
      },
      "symbol()": {
        "details": "See {IERC721Metadata-symbol}."
      },
      "tokenByIndex(uint256)": {
        "details": "See {IERC721Enumerable-tokenByIndex}."
      },
      "tokenOfOwnerByIndex(address,uint256)": {
        "details": "See {IERC721Enumerable-tokenOfOwnerByIndex}."
      },
      "tokenURI(uint256)": {
        "details": "See {IERC721Metadata-tokenURI}."
      },
      "totalSupply()": {
        "details": "See {IERC721Enumerable-totalSupply}."
      },
      "transferFrom(address,address,uint256)": {
        "details": "See {IERC721-transferFrom}."
      },
      "transferOwnership(address)": {
        "details": "Transfers ownership of the contract to a new account (`newOwner`). Can only be called by the current owner."
      }
    },
    "version": 1
  },
  "userdoc": {
    "kind": "user",
    "methods": {},
    "version": 1
  }
}