{
  "contractName": "NobleToken",
  "abi": [
    {
      "inputs": [
        {
          "internalType": "string",
          "name": "baseURI",
          "type": "string"
        }
      ],
      "stateMutability": "nonpayable",
      "type": "constructor"
    },
    {
      "anonymous": false,
      "inputs": [
        {
          "indexed": true,
          "internalType": "address",
          "name": "owner",
          "type": "address"
        },
        {
          "indexed": true,
          "internalType": "address",
          "name": "approved",
          "type": "address"
        },
        {
          "indexed": true,
          "internalType": "uint256",
          "name": "tokenId",
          "type": "uint256"
        }
      ],
      "name": "Approval",
      "type": "event"
    },
    {
      "anonymous": false,
      "inputs": [
        {
          "indexed": true,
          "internalType": "address",
          "name": "owner",
          "type": "address"
        },
        {
          "indexed": true,
          "internalType": "address",
          "name": "operator",
          "type": "address"
        },
        {
          "indexed": false,
          "internalType": "bool",
          "name": "approved",
          "type": "bool"
        }
      ],
      "name": "ApprovalForAll",
      "type": "event"
    },
    {
      "anonymous": false,
      "inputs": [
        {
          "indexed": true,
          "internalType": "address",
          "name": "previousOwner",
          "type": "address"
        },
        {
          "indexed": true,
          "internalType": "address",
          "name": "newOwner",
          "type": "address"
        }
      ],
      "name": "OwnershipTransferred",
      "type": "event"
    },
    {
      "anonymous": false,
      "inputs": [
        {
          "indexed": true,
          "internalType": "address",
          "name": "from",
          "type": "address"
        },
        {
          "indexed": true,
          "internalType": "address",
          "name": "to",
          "type": "address"
        },
        {
          "indexed": true,
          "internalType": "uint256",
          "name": "tokenId",
          "type": "uint256"
        }
      ],
      "name": "Transfer",
      "type": "event"
    },
    {
      "inputs": [],
      "name": "MAX_PER_MINT",
      "outputs": [
        {
          "internalType": "uint256",
          "name": "",
          "type": "uint256"
        }
      ],
      "stateMutability": "view",
      "type": "function",
      "constant": true
    },
    {
      "inputs": [],
      "name": "MAX_SUPPLY",
      "outputs": [
        {
          "internalType": "uint256",
          "name": "",
          "type": "uint256"
        }
      ],
      "stateMutability": "view",
      "type": "function",
      "constant": true
    },
    {
      "inputs": [],
      "name": "PRICE",
      "outputs": [
        {
          "internalType": "uint256",
          "name": "",
          "type": "uint256"
        }
      ],
      "stateMutability": "view",
      "type": "function",
      "constant": true
    },
    {
      "inputs": [
        {
          "internalType": "address",
          "name": "to",
          "type": "address"
        },
        {
          "internalType": "uint256",
          "name": "tokenId",
          "type": "uint256"
        }
      ],
      "name": "approve",
      "outputs": [],
      "stateMutability": "nonpayable",
      "type": "function"
    },
    {
      "inputs": [
        {
          "internalType": "address",
          "name": "owner",
          "type": "address"
        }
      ],
      "name": "balanceOf",
      "outputs": [
        {
          "internalType": "uint256",
          "name": "",
          "type": "uint256"
        }
      ],
      "stateMutability": "view",
      "type": "function",
      "constant": true
    },
    {
      "inputs": [],
      "name": "baseTokenURI",
      "outputs": [
        {
          "internalType": "string",
          "name": "",
          "type": "string"
        }
      ],
      "stateMutability": "view",
      "type": "function",
      "constant": true
    },
    {
      "inputs": [
        {
          "internalType": "uint256",
          "name": "tokenId",
          "type": "uint256"
        }
      ],
      "name": "getApproved",
      "outputs": [
        {
          "internalType": "address",
          "name": "",
          "type": "address"
        }
      ],
      "stateMutability": "view",
      "type": "function",
      "constant": true
    },
    {
      "inputs": [
        {
          "internalType": "address",
          "name": "owner",
          "type": "address"
        },
        {
          "internalType": "address",
          "name": "operator",
          "type": "address"
        }
      ],
      "name": "isApprovedForAll",
      "outputs": [
        {
          "internalType": "bool",
          "name": "",
          "type": "bool"
        }
      ],
      "stateMutability": "view",
      "type": "function",
      "constant": true
    },
    {
      "inputs": [],
      "name": "name",
      "outputs": [
        {
          "internalType": "string",
          "name": "",
          "type": "string"
        }
      ],
      "stateMutability": "view",
      "type": "function",
      "constant": true
    },
    {
      "inputs": [],
      "name": "owner",
      "outputs": [
        {
          "internalType": "address",
          "name": "",
          "type": "address"
        }
      ],
      "stateMutability": "view",
      "type": "function",
      "constant": true
    },
    {
      "inputs": [
        {
          "internalType": "uint256",
          "name": "tokenId",
          "type": "uint256"
        }
      ],
      "name": "ownerOf",
      "outputs": [
        {
          "internalType": "address",
          "name": "",
          "type": "address"
        }
      ],
      "stateMutability": "view",
      "type": "function",
      "constant": true
    },
    {
      "inputs": [],
      "name": "renounceOwnership",
      "outputs": [],
      "stateMutability": "nonpayable",
      "type": "function"
    },
    {
      "inputs": [
        {
          "internalType": "address",
          "name": "from",
          "type": "address"
        },
        {
          "internalType": "address",
          "name": "to",
          "type": "address"
        },
        {
          "internalType": "uint256",
          "name": "tokenId",
          "type": "uint256"
        }
      ],
      "name": "safeTransferFrom",
      "outputs": [],
      "stateMutability": "nonpayable",
      "type": "function"
    },
    {
      "inputs": [
        {
          "internalType": "address",
          "name": "from",
          "type": "address"
        },
        {
          "internalType": "address",
          "name": "to",
          "type": "address"
        },
        {
          "internalType": "uint256",
          "name": "tokenId",
          "type": "uint256"
        },
        {
          "internalType": "bytes",
          "name": "_data",
          "type": "bytes"
        }
      ],
      "name": "safeTransferFrom",
      "outputs": [],
      "stateMutability": "nonpayable",
      "type": "function"
    },
    {
      "inputs": [
        {
          "internalType": "address",
          "name": "operator",
          "type": "address"
        },
        {
          "internalType": "bool",
          "name": "approved",
          "type": "bool"
        }
      ],
      "name": "setApprovalForAll",
      "outputs": [],
      "stateMutability": "nonpayable",
      "type": "function"
    },
    {
      "inputs": [
        {
          "internalType": "bytes4",
          "name": "interfaceId",
          "type": "bytes4"
        }
      ],
      "name": "supportsInterface",
      "outputs": [
        {
          "internalType": "bool",
          "name": "",
          "type": "bool"
        }
      ],
      "stateMutability": "view",
      "type": "function",
      "constant": true
    },
    {
      "inputs": [],
      "name": "symbol",
      "outputs": [
        {
          "internalType": "string",
          "name": "",
          "type": "string"
        }
      ],
      "stateMutability": "view",
      "type": "function",
      "constant": true
    },
    {
      "inputs": [
        {
          "internalType": "uint256",
          "name": "index",
          "type": "uint256"
        }
      ],
      "name": "tokenByIndex",
      "outputs": [
        {
          "internalType": "uint256",
          "name": "",
          "type": "uint256"
        }
      ],
      "stateMutability": "view",
      "type": "function",
      "constant": true
    },
    {
      "inputs": [
        {
          "internalType": "address",
          "name": "owner",
          "type": "address"
        },
        {
          "internalType": "uint256",
          "name": "index",
          "type": "uint256"
        }
      ],
      "name": "tokenOfOwnerByIndex",
      "outputs": [
        {
          "internalType": "uint256",
          "name": "",
          "type": "uint256"
        }
      ],
      "stateMutability": "view",
      "type": "function",
      "constant": true
    },
    {
      "inputs": [
        {
          "internalType": "uint256",
          "name": "tokenId",
          "type": "uint256"
        }
      ],
      "name": "tokenURI",
      "outputs": [
        {
          "internalType": "string",
          "name": "",
          "type": "string"
        }
      ],
      "stateMutability": "view",
      "type": "function",
      "constant": true
    },
    {
      "inputs": [],
      "name": "totalSupply",
      "outputs": [
        {
          "internalType": "uint256",
          "name": "",
          "type": "uint256"
        }
      ],
      "stateMutability": "view",
      "type": "function",
      "constant": true
    },
    {
      "inputs": [
        {
          "internalType": "address",
          "name": "from",
          "type": "address"
        },
        {
          "internalType": "address",
          "name": "to",
          "type": "address"
        },
        {
          "internalType": "uint256",
          "name": "tokenId",
          "type": "uint256"
        }
      ],
      "name": "transferFrom",
      "outputs": [],
      "stateMutability": "nonpayable",
      "type": "function"
    },
    {
      "inputs": [
        {
          "internalType": "address",
          "name": "newOwner",
          "type": "address"
        }
      ],
      "name": "transferOwnership",
      "outputs": [],
      "stateMutability": "nonpayable",
      "type": "function"
    },
    {
      "inputs": [
        {
          "internalType": "uint256",
          "name": "_count",
          "type": "uint256"
        }
      ],
      "name": "mintNFTs",
      "outputs": [],
      "stateMutability": "payable",
      "type": "function",
      "payable": true
    },
    {
      "inputs": [
        {
          "internalType": "address",
          "name": "_owner",
          "type": "address"
        }
      ],
      "name": "getMyTokens",
      "outputs": [
        {
          "internalType": "uint256[]",
          "name": "",
          "type": "uint256[]"
        }
      ],
      "stateMutability": "view",
      "type": "function",
      "constant": true
    },
    {
      "inputs": [],
      "name": "withdraw",
      "outputs": [],
      "stateMutability": "payable",
      "type": "function",
      "payable": true
    }
  ],
  "bytecode": "0x60806040523480156200001157600080fd5b50604051620042be380380620042be833981810160405281019062000037919062000446565b6040518060400160405280600a81526020017f4e6f626c65546f6b656e000000000000000000000000000000000000000000008152506040518060400160405280600381526020017f4e424c00000000000000000000000000000000000000000000000000000000008152508160009080519060200190620000bb929190620001f9565b508060019080519060200190620000d4929190620001f9565b505050620000f7620000eb6200010f60201b60201c565b6200011760201b60201c565b6200010881620001dd60201b60201c565b50620004fc565b600033905090565b6000600a60009054906101000a900473ffffffffffffffffffffffffffffffffffffffff16905081600a60006101000a81548173ffffffffffffffffffffffffffffffffffffffff021916908373ffffffffffffffffffffffffffffffffffffffff1602179055508173ffffffffffffffffffffffffffffffffffffffff168173ffffffffffffffffffffffffffffffffffffffff167f8be0079c531659141344cd1fd0a4f28419497f9722a3daafe3b4186f6b6457e060405160405180910390a35050565b80600c9080519060200190620001f5929190620001f9565b5050565b8280546200020790620004c6565b90600052602060002090601f0160209004810192826200022b576000855562000277565b82601f106200024657805160ff191683800117855562000277565b8280016001018555821562000277579182015b828111156200027657825182559160200191906001019062000259565b5b5090506200028691906200028a565b5090565b5b80821115620002a55760008160009055506001016200028b565b5090565b6000604051905090565b600080fd5b600080fd5b600080fd5b600080fd5b6000601f19601f8301169050919050565b7f4e487b7100000000000000000000000000000000000000000000000000000000600052604160045260246000fd5b6200031282620002c7565b810181811067ffffffffffffffff82111715620003345762000333620002d8565b5b80604052505050565b600062000349620002a9565b905062000357828262000307565b919050565b600067ffffffffffffffff8211156200037a5762000379620002d8565b5b6200038582620002c7565b9050602081019050919050565b60005b83811015620003b257808201518184015260208101905062000395565b83811115620003c2576000848401525b50505050565b6000620003df620003d9846200035c565b6200033d565b905082815260208101848484011115620003fe57620003fd620002c2565b5b6200040b84828562000392565b509392505050565b600082601f8301126200042b576200042a620002bd565b5b81516200043d848260208601620003c8565b91505092915050565b6000602082840312156200045f576200045e620002b3565b5b600082015167ffffffffffffffff81111562000480576200047f620002b8565b5b6200048e8482850162000413565b91505092915050565b7f4e487b7100000000000000000000000000000000000000000000000000000000600052602260045260246000fd5b60006002820490506001821680620004df57607f821691505b60208210811415620004f657620004f562000497565b5b50919050565b613db2806200050c6000396000f3fe6080604052600436106101815760003560e01c80634f6ccce7116100d157806395d89b411161008a578063c87b56dd11610064578063c87b56dd14610568578063d547cfb7146105a5578063e985e9c5146105d0578063f2fde38b1461060d57610181565b806395d89b41146104eb578063a22cb46514610516578063b88d4fde1461053f57610181565b80634f6ccce7146103c75780636352211e1461040457806370a0823114610441578063715018a61461047e5780638d859f3e146104955780638da5cb5b146104c057610181565b806318160ddd1161013e57806332cb6b0c1161011857806332cb6b0c1461034d5780633b4b1381146103785780633ccfd60b1461039457806342842e0e1461039e57610181565b806318160ddd146102bc57806323b872dd146102e75780632f745c591461031057610181565b806301ffc9a71461018657806306fdde03146101c3578063081812fc146101ee578063095ea7b31461022b57806309d42b3014610254578063175165921461027f575b600080fd5b34801561019257600080fd5b506101ad60048036038101906101a89190612722565b610636565b6040516101ba919061276a565b60405180910390f35b3480156101cf57600080fd5b506101d86106b0565b6040516101e5919061281e565b60405180910390f35b3480156101fa57600080fd5b5061021560048036038101906102109190612876565b610742565b60405161022291906128e4565b60405180910390f35b34801561023757600080fd5b50610252600480360381019061024d919061292b565b6107c7565b005b34801561026057600080fd5b506102696108df565b604051610276919061297a565b60405180910390f35b34801561028b57600080fd5b506102a660048036038101906102a19190612995565b6108e4565b6040516102b39190612a80565b60405180910390f35b3480156102c857600080fd5b506102d1610992565b6040516102de919061297a565b60405180910390f35b3480156102f357600080fd5b5061030e60048036038101906103099190612aa2565b61099f565b005b34801561031c57600080fd5b506103376004803603810190610332919061292b565b6109ff565b604051610344919061297a565b60405180910390f35b34801561035957600080fd5b50610362610aa4565b60405161036f919061297a565b60405180910390f35b610392600480360381019061038d9190612876565b610aab565b005b61039c610be8565b005b3480156103aa57600080fd5b506103c560048036038101906103c09190612aa2565b610d5c565b005b3480156103d357600080fd5b506103ee60048036038101906103e99190612876565b610d7c565b6040516103fb919061297a565b60405180910390f35b34801561041057600080fd5b5061042b60048036038101906104269190612876565b610ded565b60405161043891906128e4565b60405180910390f35b34801561044d57600080fd5b5061046860048036038101906104639190612995565b610e9f565b604051610475919061297a565b60405180910390f35b34801561048a57600080fd5b50610493610f57565b005b3480156104a157600080fd5b506104aa610fdf565b6040516104b7919061297a565b60405180910390f35b3480156104cc57600080fd5b506104d5610fea565b6040516104e291906128e4565b60405180910390f35b3480156104f757600080fd5b50610500611014565b60405161050d919061281e565b60405180910390f35b34801561052257600080fd5b5061053d60048036038101906105389190612b21565b6110a6565b005b34801561054b57600080fd5b5061056660048036038101906105619190612c96565b6110bc565b005b34801561057457600080fd5b5061058f600480360381019061058a9190612876565b61111e565b60405161059c919061281e565b60405180910390f35b3480156105b157600080fd5b506105ba6111c5565b6040516105c7919061281e565b60405180910390f35b3480156105dc57600080fd5b506105f760048036038101906105f29190612d19565b611253565b604051610604919061276a565b60405180910390f35b34801561061957600080fd5b50610634600480360381019061062f9190612995565b6112e7565b005b60007f780e9d63000000000000000000000000000000000000000000000000000000007bffffffffffffffffffffffffffffffffffffffffffffffffffffffff1916827bffffffffffffffffffffffffffffffffffffffffffffffffffffffff191614806106a957506106a8826113df565b5b9050919050565b6060600080546106bf90612d88565b80601f01602080910402602001604051908101604052809291908181526020018280546106eb90612d88565b80156107385780601f1061070d57610100808354040283529160200191610738565b820191906000526020600020905b81548152906001019060200180831161071b57829003601f168201915b5050505050905090565b600061074d826114c1565b61078c576040517f08c379a000000000000000000000000000000000000000000000000000000000815260040161078390612e2c565b60405180910390fd5b6004600083815260200190815260200160002060009054906101000a900473ffffffffffffffffffffffffffffffffffffffff169050919050565b60006107d282610ded565b90508073ffffffffffffffffffffffffffffffffffffffff168373ffffffffffffffffffffffffffffffffffffffff161415610843576040517f08c379a000000000000000000000000000000000000000000000000000000000815260040161083a90612ebe565b60405180910390fd5b8073ffffffffffffffffffffffffffffffffffffffff1661086261152d565b73ffffffffffffffffffffffffffffffffffffffff16148061089157506108908161088b61152d565b611253565b5b6108d0576040517f08c379a00000000000000000000000000000000000000000000000000000000081526004016108c790612f50565b60405180910390fd5b6108da8383611535565b505050565b600381565b606060006108f183610e9f565b905060008167ffffffffffffffff81111561090f5761090e612b6b565b5b60405190808252806020026020018201604052801561093d5781602001602082028036833780820191505090505b50905060005b828110156109875761095585826109ff565b82828151811061096857610967612f70565b5b602002602001018181525050808061097f90612fce565b915050610943565b508092505050919050565b6000600880549050905090565b6109b06109aa61152d565b826115ee565b6109ef576040517f08c379a00000000000000000000000000000000000000000000000000000000081526004016109e690613089565b60405180910390fd5b6109fa8383836116cc565b505050565b6000610a0a83610e9f565b8210610a4b576040517f08c379a0000000000000000000000000000000000000000000000000000000008152600401610a429061311b565b60405180910390fd5b600660008473ffffffffffffffffffffffffffffffffffffffff1673ffffffffffffffffffffffffffffffffffffffff168152602001908152602001600020600083815260200190815260200160002054905092915050565b620f424081565b6000610ab7600b611933565b9050620f4240610ad0838361194190919063ffffffff16565b1115610b11576040517f08c379a0000000000000000000000000000000000000000000000000000000008152600401610b0890613187565b60405180910390fd5b600082118015610b22575060038211155b610b61576040517f08c379a0000000000000000000000000000000000000000000000000000000008152600401610b5890613219565b60405180910390fd5b610b7b8266470de4df82000061195790919063ffffffff16565b341015610bbd576040517f08c379a0000000000000000000000000000000000000000000000000000000008152600401610bb490613285565b60405180910390fd5b60005b82811015610be357610bd061196d565b8080610bdb90612fce565b915050610bc0565b505050565b610bf061152d565b73ffffffffffffffffffffffffffffffffffffffff16610c0e610fea565b73ffffffffffffffffffffffffffffffffffffffff1614610c64576040517f08c379a0000000000000000000000000000000000000000000000000000000008152600401610c5b906132f1565b60405180910390fd5b600047905060008111610cac576040517f08c379a0000000000000000000000000000000000000000000000000000000008152600401610ca39061335d565b60405180910390fd5b60003373ffffffffffffffffffffffffffffffffffffffff1682604051610cd2906133ae565b60006040518083038185875af1925050503d8060008114610d0f576040519150601f19603f3d011682016040523d82523d6000602084013e610d14565b606091505b5050905080610d58576040517f08c379a0000000000000000000000000000000000000000000000000000000008152600401610d4f9061340f565b60405180910390fd5b5050565b610d77838383604051806020016040528060008152506110bc565b505050565b6000610d86610992565b8210610dc7576040517f08c379a0000000000000000000000000000000000000000000000000000000008152600401610dbe906134a1565b60405180910390fd5b60088281548110610ddb57610dda612f70565b5b90600052602060002001549050919050565b6000806002600084815260200190815260200160002060009054906101000a900473ffffffffffffffffffffffffffffffffffffffff169050600073ffffffffffffffffffffffffffffffffffffffff168173ffffffffffffffffffffffffffffffffffffffff161415610e96576040517f08c379a0000000000000000000000000000000000000000000000000000000008152600401610e8d90613533565b60405180910390fd5b80915050919050565b60008073ffffffffffffffffffffffffffffffffffffffff168273ffffffffffffffffffffffffffffffffffffffff161415610f10576040517f08c379a0000000000000000000000000000000000000000000000000000000008152600401610f07906135c5565b60405180910390fd5b600360008373ffffffffffffffffffffffffffffffffffffffff1673ffffffffffffffffffffffffffffffffffffffff168152602001908152602001600020549050919050565b610f5f61152d565b73ffffffffffffffffffffffffffffffffffffffff16610f7d610fea565b73ffffffffffffffffffffffffffffffffffffffff1614610fd3576040517f08c379a0000000000000000000000000000000000000000000000000000000008152600401610fca906132f1565b60405180910390fd5b610fdd6000611992565b565b66470de4df82000081565b6000600a60009054906101000a900473ffffffffffffffffffffffffffffffffffffffff16905090565b60606001805461102390612d88565b80601f016020809104026020016040519081016040528092919081815260200182805461104f90612d88565b801561109c5780601f106110715761010080835404028352916020019161109c565b820191906000526020600020905b81548152906001019060200180831161107f57829003601f168201915b5050505050905090565b6110b86110b161152d565b8383611a58565b5050565b6110cd6110c761152d565b836115ee565b61110c576040517f08c379a000000000000000000000000000000000000000000000000000000000815260040161110390613089565b60405180910390fd5b61111884848484611bc5565b50505050565b6060611129826114c1565b611168576040517f08c379a000000000000000000000000000000000000000000000000000000000815260040161115f90613657565b60405180910390fd5b6000611172611c21565b9050600081511161119257604051806020016040528060008152506111bd565b8061119c84611cb3565b6040516020016111ad9291906136b3565b6040516020818303038152906040525b915050919050565b600c80546111d290612d88565b80601f01602080910402602001604051908101604052809291908181526020018280546111fe90612d88565b801561124b5780601f106112205761010080835404028352916020019161124b565b820191906000526020600020905b81548152906001019060200180831161122e57829003601f168201915b505050505081565b6000600560008473ffffffffffffffffffffffffffffffffffffffff1673ffffffffffffffffffffffffffffffffffffffff16815260200190815260200160002060008373ffffffffffffffffffffffffffffffffffffffff1673ffffffffffffffffffffffffffffffffffffffff16815260200190815260200160002060009054906101000a900460ff16905092915050565b6112ef61152d565b73ffffffffffffffffffffffffffffffffffffffff1661130d610fea565b73ffffffffffffffffffffffffffffffffffffffff1614611363576040517f08c379a000000000000000000000000000000000000000000000000000000000815260040161135a906132f1565b60405180910390fd5b600073ffffffffffffffffffffffffffffffffffffffff168173ffffffffffffffffffffffffffffffffffffffff1614156113d3576040517f08c379a00000000000000000000000000000000000000000000000000000000081526004016113ca90613749565b60405180910390fd5b6113dc81611992565b50565b60007f80ac58cd000000000000000000000000000000000000000000000000000000007bffffffffffffffffffffffffffffffffffffffffffffffffffffffff1916827bffffffffffffffffffffffffffffffffffffffffffffffffffffffff191614806114aa57507f5b5e139f000000000000000000000000000000000000000000000000000000007bffffffffffffffffffffffffffffffffffffffffffffffffffffffff1916827bffffffffffffffffffffffffffffffffffffffffffffffffffffffff1916145b806114ba57506114b982611e14565b5b9050919050565b60008073ffffffffffffffffffffffffffffffffffffffff166002600084815260200190815260200160002060009054906101000a900473ffffffffffffffffffffffffffffffffffffffff1673ffffffffffffffffffffffffffffffffffffffff1614159050919050565b600033905090565b816004600083815260200190815260200160002060006101000a81548173ffffffffffffffffffffffffffffffffffffffff021916908373ffffffffffffffffffffffffffffffffffffffff160217905550808273ffffffffffffffffffffffffffffffffffffffff166115a883610ded565b73ffffffffffffffffffffffffffffffffffffffff167f8c5be1e5ebec7d5bd14f71427d1e84f3dd0314c0f7b2291e5b200ac8c7c3b92560405160405180910390a45050565b60006115f9826114c1565b611638576040517f08c379a000000000000000000000000000000000000000000000000000000000815260040161162f906137db565b60405180910390fd5b600061164383610ded565b90508073ffffffffffffffffffffffffffffffffffffffff168473ffffffffffffffffffffffffffffffffffffffff1614806116b257508373ffffffffffffffffffffffffffffffffffffffff1661169a84610742565b73ffffffffffffffffffffffffffffffffffffffff16145b806116c357506116c28185611253565b5b91505092915050565b8273ffffffffffffffffffffffffffffffffffffffff166116ec82610ded565b73ffffffffffffffffffffffffffffffffffffffff1614611742576040517f08c379a00000000000000000000000000000000000000000000000000000000081526004016117399061386d565b60405180910390fd5b600073ffffffffffffffffffffffffffffffffffffffff168273ffffffffffffffffffffffffffffffffffffffff1614156117b2576040517f08c379a00000000000000000000000000000000000000000000000000000000081526004016117a9906138ff565b60405180910390fd5b6117bd838383611e7e565b6117c8600082611535565b6001600360008573ffffffffffffffffffffffffffffffffffffffff1673ffffffffffffffffffffffffffffffffffffffff1681526020019081526020016000206000828254611818919061391f565b925050819055506001600360008473ffffffffffffffffffffffffffffffffffffffff1673ffffffffffffffffffffffffffffffffffffffff168152602001908152602001600020600082825461186f9190613953565b92505081905550816002600083815260200190815260200160002060006101000a81548173ffffffffffffffffffffffffffffffffffffffff021916908373ffffffffffffffffffffffffffffffffffffffff160217905550808273ffffffffffffffffffffffffffffffffffffffff168473ffffffffffffffffffffffffffffffffffffffff167fddf252ad1be2c89b69c2b068fc378daa952ba7f163c4a11628f55a4df523b3ef60405160405180910390a461192e838383611f92565b505050565b600081600001549050919050565b6000818361194f9190613953565b905092915050565b6000818361196591906139a9565b905092915050565b6000611979600b611933565b90506119853382611f97565b61198f600b611fb5565b50565b6000600a60009054906101000a900473ffffffffffffffffffffffffffffffffffffffff16905081600a60006101000a81548173ffffffffffffffffffffffffffffffffffffffff021916908373ffffffffffffffffffffffffffffffffffffffff1602179055508173ffffffffffffffffffffffffffffffffffffffff168173ffffffffffffffffffffffffffffffffffffffff167f8be0079c531659141344cd1fd0a4f28419497f9722a3daafe3b4186f6b6457e060405160405180910390a35050565b8173ffffffffffffffffffffffffffffffffffffffff168373ffffffffffffffffffffffffffffffffffffffff161415611ac7576040517f08c379a0000000000000000000000000000000000000000000000000000000008152600401611abe90613a4f565b60405180910390fd5b80600560008573ffffffffffffffffffffffffffffffffffffffff1673ffffffffffffffffffffffffffffffffffffffff16815260200190815260200160002060008473ffffffffffffffffffffffffffffffffffffffff1673ffffffffffffffffffffffffffffffffffffffff16815260200190815260200160002060006101000a81548160ff0219169083151502179055508173ffffffffffffffffffffffffffffffffffffffff168373ffffffffffffffffffffffffffffffffffffffff167f17307eab39ab6107e8899845ad3d59bd9653f200f220920489ca2b5937696c3183604051611bb8919061276a565b60405180910390a3505050565b611bd08484846116cc565b611bdc84848484611fcb565b611c1b576040517f08c379a0000000000000000000000000000000000000000000000000000000008152600401611c1290613ae1565b60405180910390fd5b50505050565b6060600c8054611c3090612d88565b80601f0160208091040260200160405190810160405280929190818152602001828054611c5c90612d88565b8015611ca95780601f10611c7e57610100808354040283529160200191611ca9565b820191906000526020600020905b815481529060010190602001808311611c8c57829003601f168201915b5050505050905090565b60606000821415611cfb576040518060400160405280600181526020017f30000000000000000000000000000000000000000000000000000000000000008152509050611e0f565b600082905060005b60008214611d2d578080611d1690612fce565b915050600a82611d269190613b30565b9150611d03565b60008167ffffffffffffffff811115611d4957611d48612b6b565b5b6040519080825280601f01601f191660200182016040528015611d7b5781602001600182028036833780820191505090505b5090505b60008514611e0857600182611d94919061391f565b9150600a85611da39190613b61565b6030611daf9190613953565b60f81b818381518110611dc557611dc4612f70565b5b60200101907effffffffffffffffffffffffffffffffffffffffffffffffffffffffffffff1916908160001a905350600a85611e019190613b30565b9450611d7f565b8093505050505b919050565b60007f01ffc9a7000000000000000000000000000000000000000000000000000000007bffffffffffffffffffffffffffffffffffffffffffffffffffffffff1916827bffffffffffffffffffffffffffffffffffffffffffffffffffffffff1916149050919050565b611e89838383612153565b600073ffffffffffffffffffffffffffffffffffffffff168373ffffffffffffffffffffffffffffffffffffffff161415611ecc57611ec781612158565b611f0b565b8173ffffffffffffffffffffffffffffffffffffffff168373ffffffffffffffffffffffffffffffffffffffff1614611f0a57611f0983826121a1565b5b5b600073ffffffffffffffffffffffffffffffffffffffff168273ffffffffffffffffffffffffffffffffffffffff161415611f4e57611f498161230e565b611f8d565b8273ffffffffffffffffffffffffffffffffffffffff168273ffffffffffffffffffffffffffffffffffffffff1614611f8c57611f8b82826123df565b5b5b505050565b505050565b611fb182826040518060200160405280600081525061245e565b5050565b6001816000016000828254019250508190555050565b6000611fec8473ffffffffffffffffffffffffffffffffffffffff166124b9565b15612146578373ffffffffffffffffffffffffffffffffffffffff1663150b7a0261201561152d565b8786866040518563ffffffff1660e01b81526004016120379493929190613be7565b6020604051808303816000875af192505050801561207357506040513d601f19601f820116820180604052508101906120709190613c48565b60015b6120f6573d80600081146120a3576040519150601f19603f3d011682016040523d82523d6000602084013e6120a8565b606091505b506000815114156120ee576040517f08c379a00000000000000000000000000000000000000000000000000000000081526004016120e590613ae1565b60405180910390fd5b805181602001fd5b63150b7a0260e01b7bffffffffffffffffffffffffffffffffffffffffffffffffffffffff1916817bffffffffffffffffffffffffffffffffffffffffffffffffffffffff19161491505061214b565b600190505b949350505050565b505050565b6008805490506009600083815260200190815260200160002081905550600881908060018154018082558091505060019003906000526020600020016000909190919091505550565b600060016121ae84610e9f565b6121b8919061391f565b905060006007600084815260200190815260200160002054905081811461229d576000600660008673ffffffffffffffffffffffffffffffffffffffff1673ffffffffffffffffffffffffffffffffffffffff168152602001908152602001600020600084815260200190815260200160002054905080600660008773ffffffffffffffffffffffffffffffffffffffff1673ffffffffffffffffffffffffffffffffffffffff168152602001908152602001600020600084815260200190815260200160002081905550816007600083815260200190815260200160002081905550505b6007600084815260200190815260200160002060009055600660008573ffffffffffffffffffffffffffffffffffffffff1673ffffffffffffffffffffffffffffffffffffffff16815260200190815260200160002060008381526020019081526020016000206000905550505050565b60006001600880549050612322919061391f565b905060006009600084815260200190815260200160002054905060006008838154811061235257612351612f70565b5b90600052602060002001549050806008838154811061237457612373612f70565b5b9060005260206000200181905550816009600083815260200190815260200160002081905550600960008581526020019081526020016000206000905560088054806123c3576123c2613c75565b5b6001900381819060005260206000200160009055905550505050565b60006123ea83610e9f565b905081600660008573ffffffffffffffffffffffffffffffffffffffff1673ffffffffffffffffffffffffffffffffffffffff168152602001908152602001600020600083815260200190815260200160002081905550806007600084815260200190815260200160002081905550505050565b61246883836124dc565b6124756000848484611fcb565b6124b4576040517f08c379a00000000000000000000000000000000000000000000000000000000081526004016124ab90613ae1565b60405180910390fd5b505050565b6000808273ffffffffffffffffffffffffffffffffffffffff163b119050919050565b600073ffffffffffffffffffffffffffffffffffffffff168273ffffffffffffffffffffffffffffffffffffffff16141561254c576040517f08c379a000000000000000000000000000000000000000000000000000000000815260040161254390613cf0565b60405180910390fd5b612555816114c1565b15612595576040517f08c379a000000000000000000000000000000000000000000000000000000000815260040161258c90613d5c565b60405180910390fd5b6125a160008383611e7e565b6001600360008473ffffffffffffffffffffffffffffffffffffffff1673ffffffffffffffffffffffffffffffffffffffff16815260200190815260200160002060008282546125f19190613953565b92505081905550816002600083815260200190815260200160002060006101000a81548173ffffffffffffffffffffffffffffffffffffffff021916908373ffffffffffffffffffffffffffffffffffffffff160217905550808273ffffffffffffffffffffffffffffffffffffffff16600073ffffffffffffffffffffffffffffffffffffffff167fddf252ad1be2c89b69c2b068fc378daa952ba7f163c4a11628f55a4df523b3ef60405160405180910390a46126b260008383611f92565b5050565b6000604051905090565b600080fd5b600080fd5b60007fffffffff0000000000000000000000000000000000000000000000000000000082169050919050565b6126ff816126ca565b811461270a57600080fd5b50565b60008135905061271c816126f6565b92915050565b600060208284031215612738576127376126c0565b5b60006127468482850161270d565b91505092915050565b60008115159050919050565b6127648161274f565b82525050565b600060208201905061277f600083018461275b565b92915050565b600081519050919050565b600082825260208201905092915050565b60005b838110156127bf5780820151818401526020810190506127a4565b838111156127ce576000848401525b50505050565b6000601f19601f8301169050919050565b60006127f082612785565b6127fa8185612790565b935061280a8185602086016127a1565b612813816127d4565b840191505092915050565b6000602082019050818103600083015261283881846127e5565b905092915050565b6000819050919050565b61285381612840565b811461285e57600080fd5b50565b6000813590506128708161284a565b92915050565b60006020828403121561288c5761288b6126c0565b5b600061289a84828501612861565b91505092915050565b600073ffffffffffffffffffffffffffffffffffffffff82169050919050565b60006128ce826128a3565b9050919050565b6128de816128c3565b82525050565b60006020820190506128f960008301846128d5565b92915050565b612908816128c3565b811461291357600080fd5b50565b600081359050612925816128ff565b92915050565b60008060408385031215612942576129416126c0565b5b600061295085828601612916565b925050602061296185828601612861565b9150509250929050565b61297481612840565b82525050565b600060208201905061298f600083018461296b565b92915050565b6000602082840312156129ab576129aa6126c0565b5b60006129b984828501612916565b91505092915050565b600081519050919050565b600082825260208201905092915050565b6000819050602082019050919050565b6129f781612840565b82525050565b6000612a0983836129ee565b60208301905092915050565b6000602082019050919050565b6000612a2d826129c2565b612a3781856129cd565b9350612a42836129de565b8060005b83811015612a73578151612a5a88826129fd565b9750612a6583612a15565b925050600181019050612a46565b5085935050505092915050565b60006020820190508181036000830152612a9a8184612a22565b905092915050565b600080600060608486031215612abb57612aba6126c0565b5b6000612ac986828701612916565b9350506020612ada86828701612916565b9250506040612aeb86828701612861565b9150509250925092565b612afe8161274f565b8114612b0957600080fd5b50565b600081359050612b1b81612af5565b92915050565b60008060408385031215612b3857612b376126c0565b5b6000612b4685828601612916565b9250506020612b5785828601612b0c565b9150509250929050565b600080fd5b600080fd5b7f4e487b7100000000000000000000000000000000000000000000000000000000600052604160045260246000fd5b612ba3826127d4565b810181811067ffffffffffffffff82111715612bc257612bc1612b6b565b5b80604052505050565b6000612bd56126b6565b9050612be18282612b9a565b919050565b600067ffffffffffffffff821115612c0157612c00612b6b565b5b612c0a826127d4565b9050602081019050919050565b82818337600083830152505050565b6000612c39612c3484612be6565b612bcb565b905082815260208101848484011115612c5557612c54612b66565b5b612c60848285612c17565b509392505050565b600082601f830112612c7d57612c7c612b61565b5b8135612c8d848260208601612c26565b91505092915050565b60008060008060808587031215612cb057612caf6126c0565b5b6000612cbe87828801612916565b9450506020612ccf87828801612916565b9350506040612ce087828801612861565b925050606085013567ffffffffffffffff811115612d0157612d006126c5565b5b612d0d87828801612c68565b91505092959194509250565b60008060408385031215612d3057612d2f6126c0565b5b6000612d3e85828601612916565b9250506020612d4f85828601612916565b9150509250929050565b7f4e487b7100000000000000000000000000000000000000000000000000000000600052602260045260246000fd5b60006002820490506001821680612da057607f821691505b60208210811415612db457612db3612d59565b5b50919050565b7f4552433732313a20617070726f76656420717565727920666f72206e6f6e657860008201527f697374656e7420746f6b656e0000000000000000000000000000000000000000602082015250565b6000612e16602c83612790565b9150612e2182612dba565b604082019050919050565b60006020820190508181036000830152612e4581612e09565b9050919050565b7f4552433732313a20617070726f76616c20746f2063757272656e74206f776e6560008201527f7200000000000000000000000000000000000000000000000000000000000000602082015250565b6000612ea8602183612790565b9150612eb382612e4c565b604082019050919050565b60006020820190508181036000830152612ed781612e9b565b9050919050565b7f4552433732313a20617070726f76652063616c6c6572206973206e6f74206f7760008201527f6e6572206e6f7220617070726f76656420666f7220616c6c0000000000000000602082015250565b6000612f3a603883612790565b9150612f4582612ede565b604082019050919050565b60006020820190508181036000830152612f6981612f2d565b9050919050565b7f4e487b7100000000000000000000000000000000000000000000000000000000600052603260045260246000fd5b7f4e487b7100000000000000000000000000000000000000000000000000000000600052601160045260246000fd5b6000612fd982612840565b91507fffffffffffffffffffffffffffffffffffffffffffffffffffffffffffffffff82141561300c5761300b612f9f565b5b600182019050919050565b7f4552433732313a207472616e736665722063616c6c6572206973206e6f74206f60008201527f776e6572206e6f7220617070726f766564000000000000000000000000000000602082015250565b6000613073603183612790565b915061307e82613017565b604082019050919050565b600060208201905081810360008301526130a281613066565b9050919050565b7f455243373231456e756d657261626c653a206f776e657220696e646578206f7560008201527f74206f6620626f756e6473000000000000000000000000000000000000000000602082015250565b6000613105602b83612790565b9150613110826130a9565b604082019050919050565b60006020820190508181036000830152613134816130f8565b9050919050565b7f43616e6e6f74206d696e74206d6f7265207468616e204d41585f535550504c59600082015250565b6000613171602083612790565b915061317c8261313b565b602082019050919050565b600060208201905081810360008301526131a081613164565b9050919050565b7f43616e6e6f74206d696e74206d6f7265207468616e204d41585f5045525f4d4960008201527f4e54000000000000000000000000000000000000000000000000000000000000602082015250565b6000613203602283612790565b915061320e826131a7565b604082019050919050565b60006020820190508181036000830152613232816131f6565b9050919050565b7f4e6f7420656e6f75676820657468657220746f206d696e7420616e204e465400600082015250565b600061326f601f83612790565b915061327a82613239565b602082019050919050565b6000602082019050818103600083015261329e81613262565b9050919050565b7f4f776e61626c653a2063616c6c6572206973206e6f7420746865206f776e6572600082015250565b60006132db602083612790565b91506132e6826132a5565b602082019050919050565b6000602082019050818103600083015261330a816132ce565b9050919050565b7f4e6f20657468657220746f207769746864726177000000000000000000000000600082015250565b6000613347601483612790565b915061335282613311565b602082019050919050565b600060208201905081810360008301526133768161333a565b9050919050565b600081905092915050565b50565b600061339860008361337d565b91506133a382613388565b600082019050919050565b60006133b98261338b565b9150819050919050565b7f4661696c656420746f2073656e6420657468657220746f206f776e65722e0000600082015250565b60006133f9601e83612790565b9150613404826133c3565b602082019050919050565b60006020820190508181036000830152613428816133ec565b9050919050565b7f455243373231456e756d657261626c653a20676c6f62616c20696e646578206f60008201527f7574206f6620626f756e64730000000000000000000000000000000000000000602082015250565b600061348b602c83612790565b91506134968261342f565b604082019050919050565b600060208201905081810360008301526134ba8161347e565b9050919050565b7f4552433732313a206f776e657220717565727920666f72206e6f6e657869737460008201527f656e7420746f6b656e0000000000000000000000000000000000000000000000602082015250565b600061351d602983612790565b9150613528826134c1565b604082019050919050565b6000602082019050818103600083015261354c81613510565b9050919050565b7f4552433732313a2062616c616e636520717565727920666f7220746865207a6560008201527f726f206164647265737300000000000000000000000000000000000000000000602082015250565b60006135af602a83612790565b91506135ba82613553565b604082019050919050565b600060208201905081810360008301526135de816135a2565b9050919050565b7f4552433732314d657461646174613a2055524920717565727920666f72206e6f60008201527f6e6578697374656e7420746f6b656e0000000000000000000000000000000000602082015250565b6000613641602f83612790565b915061364c826135e5565b604082019050919050565b6000602082019050818103600083015261367081613634565b9050919050565b600081905092915050565b600061368d82612785565b6136978185613677565b93506136a78185602086016127a1565b80840191505092915050565b60006136bf8285613682565b91506136cb8284613682565b91508190509392505050565b7f4f776e61626c653a206e6577206f776e657220697320746865207a65726f206160008201527f6464726573730000000000000000000000000000000000000000000000000000602082015250565b6000613733602683612790565b915061373e826136d7565b604082019050919050565b6000602082019050818103600083015261376281613726565b9050919050565b7f4552433732313a206f70657261746f7220717565727920666f72206e6f6e657860008201527f697374656e7420746f6b656e0000000000000000000000000000000000000000602082015250565b60006137c5602c83612790565b91506137d082613769565b604082019050919050565b600060208201905081810360008301526137f4816137b8565b9050919050565b7f4552433732313a207472616e736665722066726f6d20696e636f72726563742060008201527f6f776e6572000000000000000000000000000000000000000000000000000000602082015250565b6000613857602583612790565b9150613862826137fb565b604082019050919050565b600060208201905081810360008301526138868161384a565b9050919050565b7f4552433732313a207472616e7366657220746f20746865207a65726f2061646460008201527f7265737300000000000000000000000000000000000000000000000000000000602082015250565b60006138e9602483612790565b91506138f48261388d565b604082019050919050565b60006020820190508181036000830152613918816138dc565b9050919050565b600061392a82612840565b915061393583612840565b92508282101561394857613947612f9f565b5b828203905092915050565b600061395e82612840565b915061396983612840565b9250827fffffffffffffffffffffffffffffffffffffffffffffffffffffffffffffffff0382111561399e5761399d612f9f565b5b828201905092915050565b60006139b482612840565b91506139bf83612840565b9250817fffffffffffffffffffffffffffffffffffffffffffffffffffffffffffffffff04831182151516156139f8576139f7612f9f565b5b828202905092915050565b7f4552433732313a20617070726f766520746f2063616c6c657200000000000000600082015250565b6000613a39601983612790565b9150613a4482613a03565b602082019050919050565b60006020820190508181036000830152613a6881613a2c565b9050919050565b7f4552433732313a207472616e7366657220746f206e6f6e20455243373231526560008201527f63656976657220696d706c656d656e7465720000000000000000000000000000602082015250565b6000613acb603283612790565b9150613ad682613a6f565b604082019050919050565b60006020820190508181036000830152613afa81613abe565b9050919050565b7f4e487b7100000000000000000000000000000000000000000000000000000000600052601260045260246000fd5b6000613b3b82612840565b9150613b4683612840565b925082613b5657613b55613b01565b5b828204905092915050565b6000613b6c82612840565b9150613b7783612840565b925082613b8757613b86613b01565b5b828206905092915050565b600081519050919050565b600082825260208201905092915050565b6000613bb982613b92565b613bc38185613b9d565b9350613bd38185602086016127a1565b613bdc816127d4565b840191505092915050565b6000608082019050613bfc60008301876128d5565b613c0960208301866128d5565b613c16604083018561296b565b8181036060830152613c288184613bae565b905095945050505050565b600081519050613c42816126f6565b92915050565b600060208284031215613c5e57613c5d6126c0565b5b6000613c6c84828501613c33565b91505092915050565b7f4e487b7100000000000000000000000000000000000000000000000000000000600052603160045260246000fd5b7f4552433732313a206d696e7420746f20746865207a65726f2061646472657373600082015250565b6000613cda602083612790565b9150613ce582613ca4565b602082019050919050565b60006020820190508181036000830152613d0981613ccd565b9050919050565b7f4552433732313a20746f6b656e20616c7265616479206d696e74656400000000600082015250565b6000613d46601c83612790565b9150613d5182613d10565b602082019050919050565b60006020820190508181036000830152613d7581613d39565b905091905056fea2646970667358221220df0adaa8140d694c546c7fd231637fdc954d7dfb336d83a9f30b23a3713667c064736f6c634300080b0033",
  "immutableReferences": {},
  "source": "// SPDX-License-Identifier: MIT\r\npragma solidity ^0.8.11;\r\n\r\nimport \"@openzeppelin/contracts/utils/Counters.sol\";\r\nimport \"@openzeppelin/contracts/access/Ownable.sol\";\r\nimport \"@openzeppelin/contracts/utils/math/SafeMath.sol\";\r\nimport \"@openzeppelin/contracts/token/ERC721/extensions/ERC721Enumerable.sol\";\r\n\r\ncontract NobleToken is ERC721Enumerable, Ownable {\r\n    using SafeMath for uint256;\r\n    using Counters for Counters.Counter;\r\n\r\n    Counters.Counter private _tokenIds;\r\n\r\n    uint public constant MAX_SUPPLY = 1000000;\r\n    uint public constant PRICE = 0.02 ether;\r\n    uint public constant MAX_PER_MINT = 3;\r\n\r\n    string public baseTokenURI;\r\n\r\n    constructor(string memory baseURI) ERC721(\"NobleToken\", \"NBL\") {\r\n        setBaseURI(baseURI);\r\n    }\r\n\r\n    function _baseURI() internal view virtual override returns (string memory) {\r\n        return baseTokenURI;\r\n    }\r\n\r\n    function setBaseURI(string memory _baseTokenURI) internal {\r\n        baseTokenURI = _baseTokenURI;\r\n    }\r\n\r\n    function mintNFTs(uint _count) public payable {\r\n        uint totalMinted = _tokenIds.current();\r\n\r\n        require(totalMinted.add(_count) <= MAX_SUPPLY, \"Cannot mint more than MAX_SUPPLY\");\r\n        require(_count >0 && _count <= MAX_PER_MINT, \"Cannot mint more than MAX_PER_MINT\");\r\n        require(msg.value >= PRICE.mul(_count), \"Not enough ether to mint an NFT\");\r\n        \r\n        for(uint i = 0; i < _count; i++) {\r\n            _mintSingleNFT();\r\n        }\r\n    }\r\n\r\n    function _mintSingleNFT() private {\r\n        uint newTokenId = _tokenIds.current();\r\n        _safeMint(msg.sender, newTokenId);\r\n        _tokenIds.increment();\r\n    }\r\n\r\n    function getMyTokens(address _owner) external view returns (uint[] memory) {\r\n        uint tokenCount = balanceOf(_owner);\r\n        uint[] memory tokenIds = new uint256[](tokenCount);\r\n\r\n        for(uint i = 0; i < tokenCount; i++) {\r\n            tokenIds[i] = tokenOfOwnerByIndex(_owner, i);\r\n        }\r\n        return tokenIds;\r\n    }\r\n\r\n    function withdraw() public payable onlyOwner {\r\n        uint balance = address(this).balance;\r\n        require(balance > 0, \"No ether to withdraw\");\r\n        \r\n        (bool success, ) = (msg.sender).call{value: balance}(\"\");\r\n        require(success, \"Failed to send ether to owner.\");\r\n    }\r\n}\r\n\r\n\r\n\r\n",
  "sourcePath": "D:\\Github\\NobleFantasyTournament\\noble-fantasy-tournament\\contracts\\NobleToken.sol",
  "compiler": {
    "name": "solc",
    "version": "0.8.11+commit.d7f03943.Emscripten.clang"
  },
  "schemaVersion": "3.4.4",
  "updatedAt": "2022-04-22T18:09:43.366Z",
  "networkType": "ethereum",
  "devdoc": {
    "kind": "dev",
    "methods": {
      "approve(address,uint256)": {
        "details": "See {IERC721-approve}."
      },
      "balanceOf(address)": {
        "details": "See {IERC721-balanceOf}."
      },
      "getApproved(uint256)": {
        "details": "See {IERC721-getApproved}."
      },
      "isApprovedForAll(address,address)": {
        "details": "See {IERC721-isApprovedForAll}."
      },
      "name()": {
        "details": "See {IERC721Metadata-name}."
      },
      "owner()": {
        "details": "Returns the address of the current owner."
      },
      "ownerOf(uint256)": {
        "details": "See {IERC721-ownerOf}."
      },
      "renounceOwnership()": {
        "details": "Leaves the contract without owner. It will not be possible to call `onlyOwner` functions anymore. Can only be called by the current owner. NOTE: Renouncing ownership will leave the contract without an owner, thereby removing any functionality that is only available to the owner."
      },
      "safeTransferFrom(address,address,uint256)": {
        "details": "See {IERC721-safeTransferFrom}."
      },
      "safeTransferFrom(address,address,uint256,bytes)": {
        "details": "See {IERC721-safeTransferFrom}."
      },
      "setApprovalForAll(address,bool)": {
        "details": "See {IERC721-setApprovalForAll}."
      },
      "supportsInterface(bytes4)": {
        "details": "See {IERC165-supportsInterface}."
      },
      "symbol()": {
        "details": "See {IERC721Metadata-symbol}."
      },
      "tokenByIndex(uint256)": {
        "details": "See {IERC721Enumerable-tokenByIndex}."
      },
      "tokenOfOwnerByIndex(address,uint256)": {
        "details": "See {IERC721Enumerable-tokenOfOwnerByIndex}."
      },
      "tokenURI(uint256)": {
        "details": "See {IERC721Metadata-tokenURI}."
      },
      "totalSupply()": {
        "details": "See {IERC721Enumerable-totalSupply}."
      },
      "transferFrom(address,address,uint256)": {
        "details": "See {IERC721-transferFrom}."
      },
      "transferOwnership(address)": {
        "details": "Transfers ownership of the contract to a new account (`newOwner`). Can only be called by the current owner."
      }
    },
    "version": 1
  },
  "userdoc": {
    "kind": "user",
    "methods": {},
    "version": 1
  }
}